:020000021000EC
:10C000000000022075C301005DC301005FC3010091
:10C0100061C3010063C3010065C3010000000000AB
:10C0200000000000000000000000000067C30100E5
:10C0300069C30100000000006BC301006DC3010073
:10C04000992202006FC30100513602006FC3010044
:10C050006FC30100B1330200E12F02006FC3010082
:10C060006FC301006FC301006FC301006FC3010004
:10C070006FC30100893A02006FC301006FC3010062
:10C080006FC30100E1DF01006FC301006FC3010056
:10C090006FC301006FC30100FD0A03006FC30100FD
:10C0A0006FC301006FC301006FC301009D3C02001C
:10C0B0006FC301006FC3010000000000000000001A
:10C0C0006FC301006FC301006FC301006FC30100A4
:10C0D0006FC301006FC301006FC301006FC3010094
:10C0E0006FC301000000000000000000000000001D
:10C0F000000000006FC30100000000006FC30100DA
:10C10000000000000000000000000000000000002F
:10C11000000000000000000000000000000000001F
:10C12000000000000000000000000000000000000F
:10C1300000000000000000000000000000000000FF
:10C1400000000000000000000000000000000000EF
:10C1500000000000000000000000000000000000DF
:10C1600000000000000000000000000000000000CF
:10C1700000000000000000000000000000000000BF
:10C1800000000000000000000000000000000000AF
:10C19000000000000000000000000000000000009F
:10C1A000000000000000000000000000000000008F
:10C1B000000000000000000000000000000000007F
:10C1C000000000000000000000000000000000006F
:10C1D000000000000000000000000000000000005F
:10C1E000000000000000000000000000000000004F
:10C1F000000000000000000000000000000000003F
:10C20000354936480A1A02D0072291438D463449EF
:10C2100034480A1A06D00722914381F30988022282
:10C2200082F3148830483149314A00F044F83148EB
:10C230003149324A00F03FF831483249324A00F081
:10C240003AF832483249334A00F035F83248334937
:10C25000334A00F030F833483349344A00F02BF8C1
:10C2600033483449344A00F026F83448344900222F
:10C2700000F02CF833483449002200F027F8334806
:10C280003349091A082902DB002202604160314A61
:10C2900090471F481F49884205D00268043003B404
:10C2A000904703BCF7E700208646EC4600200021BB
:10C2B000294A9047FEE7884207D0521A05D00378F2
:10C2C00001300B700131013AF9D17047884202D038
:10C2D00002700130FAE770470000022000F80120E8
:10C2E000000002200000022080B303001C26002072
:10C2F000D0260020D0C30100D0C301009C3E030023
:10C3000080B303001C2600201C2600208040030070
:10C310008040030080400300804003008040030011
:10C3200080400300804003008040030080B303008E
:10C3300034B40300D0260020D0260020D0260020D0
:10C340002036002020360020203600202036002015
:10C35000203E00209DC30100A1940200FEE7FEE7FD
:10C36000FEE7FEE7FEE7FEE7FEE7FEE7FEE7FEE7A5
:10C3700000F002B8FFF7FCBF0F484FF007018843F9
:10C3800085460E4880470E48016841F470010160FF
:10C39000BFF34F8FBFF36F8FFFF732BF09480A49D2
:10C3A0000A4A884207D0521A05D0037801300B7030
:10C3B0000131013AF9D1704700000220F9950200DD
:10C3C00088ED00E06C400300082600201C260020B9
:10C3D00084B001900B468DF8033013468DF802307F
:10C3E00000230393019B032B3CD89DF80230012BC3
:10C3F0000BD19DF80330012B04D1019BDBB20E332E
:10C40000DBB200E000238DF802309DF80330022BF0
:10C410000FD0022B23DC002B16D0012B1FD1144987
:10C42000019A13465B0013440B449DF802201A70D6
:10C430001AE00F49019A13465B0013440B44013381
:10C440009DF802201A700FE00949019A13465B001B
:10C4500013440B4402339DF802201A7004E00723B2
:10C46000039301E007230393039B184604B070472E
:10C47000D026002000B583B0012200210020FFF764
:10C48000A7FF0190019B002B04D0019B072B01D03B
:10C49000019B1CE0072202210120FFF799FF019078
:10C4A000019B002B04D0019B072B01D0019B0EE0C8
:10C4B000042202210020FFF78BFF0190019B002B3B
:10C4C00004D0019B072B01D0019B00E000231846FC
:10C4D00003B05DF804FB00B583B001220221002007
:10C4E000FFF776FF0190019B002B04D0019B072BE7
:10C4F00001D0019B1CE0072202210120FFF768FF09
:10C500000190019B002B04D0019B072B01D0019BC4
:10C510000EE00A2200210020FFF75AFF0190019B44
:10C52000002B04D0019B072B01D0019B00E00023CE
:10C53000184603B05DF804FB00B585B0019000918A
:10C54000019B1B88102B02D0112B18D02FE01A4B07
:10C550001B68002B0DD1FFF78DFF0390039B002B71
:10C5600007D0164B1B68002B03D0144B1B68039895
:10C570009847114B1B6801330F4A136017E00E4BAD
:10C580001B68013B0C4A13600B4B1B68002B0DD141
:10C59000FFF7A1FF0390039B002B07D0074B1B68FD
:10C5A000002B03D0054B1B680398984700BF00BFC2
:10C5B00005B05DF804FB00BFE0260020DC2600206B
:10C5C00000B583B0002100200CF00EFA0190019B11
:10C5D000184603B05DF804FB00B583B00CF07EFA9A
:10C5E0000190019B184603B05DF804FB84B00190F4
:10C5F000019B002B0BD0019B002B13DC019B13F143
:10C60000380F07D0019B13F1360F07D00AE0002343
:10C6100003930BE048F21153039307E048F21453DD
:10C62000039303E048F21653039300BF039B18469D
:10C6300004B0704700B585B0039002910192019952
:10C64000029805F085FB0023184605B05DF804FB51
:10C6500000B589B003900291039B04330793002037
:10C6600005F09EFA0690069B002B01D0069B10E079
:10C6700007980BF0E5FA00230093002300220749F6
:10C6800007980BF054FD05900598FFF7AFFF069053
:10C69000069B184609B05DF804FB00BF35C60100D3
:10C6A00000B585B00190019B0433039303980BF010
:10C6B000D4FA05F0BBFA0023184605B05DF804FB78
:10C6C00000B587B00390029101928DF80330039B6F
:10C6D00004330593019A029905980BF015FE049016
:10C6E0000498FFF783FF0346184607B05DF804FB84
:10C6F00000B587B00390029101920093039B04332D
:10C700000593009A019905980BF076FC0490049823
:10C71000FFF76CFF0346184607B05DF804FB000006
:10C7200084B003468DF807309DF807305B08DBB214
:10C730001A460D4B9B5C8DF80F309DF8073003F0C7
:10C740000103002B04D09DF80F301B09DBB204E07D
:10C750009DF80F3003F00F03DBB28DF80E309DF81B
:10C760000E30184604B070471827002084B00346E6
:10C770000A468DF8073013468DF806309DF80730CD
:10C7800003F00103002B01D00F2300E0F0238DF80C
:10C790000F309DF8073003F00103002B04D09DF803
:10C7A00006301B01DBB201E09DF806308DF80E303B
:10C7B0009DF807305B08DBB21A46114B9A5C9DF876
:10C7C00007305B08DBB219469DF80F301340DAB230
:10C7D0000B4B5A549DF807305B08DBB21A46084BE6
:10C7E0009A5C9DF807305B08DBB219469DF80E3065
:10C7F0001343DAB2024B5A5400BF04B0704700BF73
:10C800001827002000B585B003468DF807300023B7
:10C81000039310E00F4B1A68039BDB001344029351
:10C82000029B1B789DF807209A4201D1029B0DE0E4
:10C83000039B01330393084B1B781A46039B9342D7
:10C84000E8DB064988200CF0F7F90023184605B00C
:10C850005DF804FBE4260020E82600208C4003005D
:10C8600000B585B003460A468DF8073013468DF8AB
:10C8700006309DF807301846FFF7C4FF0390039B6E
:10C88000002B0BD0039B5B68002B07D0039B5B68DE
:10C890009DF806109DF807201046984700BF05B088
:10C8A0005DF804FB2DE9F04F87B003460A468DF88A
:10C8B0000F3013468DF80E309DF80F301846FFF7F5
:10C8C0002FFF0346042B00F2C28001A252F823F08E
:10C8D000E5C8010059C9010075C90100A5C90100D9
:10C8E000BBC901009DF80E30002B00F0AD809DF813
:10C8F0000F3001211846FFF739FF00238DF817305C
:10C900000DF11703184600F03FFF9DF80F104FF090
:10C9100001024FF00003A1F12004C1F1200003FA4D
:10C9200001F702FA04F4274322FA00F0074302FA5F
:10C9300001F6494BD3E9002346EA020100913B434B
:10C940000193454BDDE90012C3E900129DF8173051
:10C95000184600F02FFF77E09DF80E30002B01D035
:10C96000022200E000229DF80F3011461846FFF722
:10C97000FDFE6CE09DF80E30002B0CD09DF80F30C2
:10C9800003211846FFF7F2FE9DF80F3001211846EB
:10C99000FFF766FF5BE09DF80F3001211846FFF7B7
:10C9A000E5FE54E09DF80E30002B4FD19DF80F307E
:10C9B00004211846FFF7DAFE48E09DF80E30002B00
:10C9C00006D09DF80F3003211846FFF7CFFE3EE05A
:10C9D0009DF80F3000211846FFF7C8FE9DF80F3074
:10C9E00000211846FFF73CFF00238DF816300DF1AB
:10C9F0001603184600F0C8FE9DF80F104FF0010214
:10CA00004FF00003A1F12006C1F1200003FA01F567
:10CA100002FA06F6354322FA00F0054302FA01F461
:10CA20006FEA04086FEA05090B4BD3E9002308EA13
:10CA3000020A09EA030B084BC3E900AB9DF8163064
:10CA4000184600F0B7FE02E000BF00E000BF00BFE4
:10CA500007B0BDE8F08F00BF1027002000B583B0FD
:10CA60000648074B1B685B080022194600F0AEFD24
:10CA7000019000BF03B05DF804FB00BFF02600206A
:10CA8000EC26002000B587B001900023059328E034
:10CA90001C4B1A68059BDB0013440493049B1B7812
:10CAA000184606F0EDF903468DF80F30049B5B78CD
:10CAB000012B0CBF01230023DBB21A469DF80F3077
:10CAC0009A420CBF012300238DF80E30049B1B7883
:10CAD0009DF80E2011461846FFF7E4FE059B013332
:10CAE0000593094B1B781A46059B9342D0DB074BF5
:10CAF000D3E90023134301D0FFF7B0FF00BF07B015
:10CB00005DF804FBE4260020E82600201027002022
:10CB100000B585B001900B468DF80330019BDBB268
:10CB20001846FFF76FFE0390039B1B78184606F02C
:10CB3000A7F903468DF80B30039B5B78012B0CBFE4
:10CB400001230023DBB21A469DF80B309A420CBF3A
:10CB5000012300238DF80A309DF80A30002B06D0FF
:10CB6000054BD3E90023134301D1FFF777FF00BF43
:10CB700005B05DF804FB00BF1027002000B58BB0A6
:10CB800003900B4601928DF80B30019B092B01D8C5
:10CB9000072367E006F028F8034683F00103DBB2C1
:10CBA000002B09D005F0BCFF0990099B0893089B56
:10CBB000002B01D0089B55E02C4A039B13602C4AA4
:10CBC0009DF80B3013702B4A019B1360202200212B
:10CBD000294814F0F0FC29494FF000024FF00003FF
:10CBE000C1E9002331E09DF80B30DB00039A1344C8
:10CBF000079303238DF8143000238DF815309DF82A
:10CC000016306FF300038DF816309DF816306FF371
:10CC100041038DF816309DF816306FF382038DF8BE
:10CC20001630079B9B788DF81530079B1B781846AC
:10CC300005AB134A194605F0E3FF0990099B0693DB
:10CC4000069B002B01D0069B0CE09DF80B305A1E72
:10CC50008DF80B20002BC6D10A4A00210A4800F0AB
:10CC600081FC034618460BB05DF804FBE426002067
:10CC7000E8260020EC26002018270020102700209E
:10CC800011CB010085CA01001441030000B583B037
:10CC9000114B1B68002B04D1104940F235100BF0EA
:10CCA000CBFF002301930CE00B4B1A68019BDB00C8
:10CCB00013441B780121184606F01EF8019B01332E
:10CCC0000193074B1B781A46019B9342ECD3002338
:10CCD000184603B05DF804FBE42600208C400300F6
:10CCE000E826002000B583B01D4B1B68002B04D143
:10CCF0001C4940F243100BF09FFF002301930BE00F
:10CD0000174B1A68019BDB0013441B78184606F08A
:10CD100077F8019B01330193134B1B781A46019B53
:10CD20009342EDD300238DF803300DF10303184631
:10CD300000F02AFD0D494FF000024FF00003C1E959
:10CD400000239DF80330184600F034FD084B1846C8
:10CD500000F074FC0346184603B05DF804FB00BF06
:10CD6000E42600208C400300E82600201027002045
:10CD7000F026002086B003900291019201238DF8E5
:10CD800017309DF81730204A039B13601E4A029B00
:10CD900053601D4A019B9360039B44F2010293423E
:10CDA00012D0039B44F20202934220D1019B164A07
:10CDB000D360154BDB681B68134A9361124BDB6829
:10CDC0005B68114AD36112E0019B0F4A13610E4B5D
:10CDD0001B699B680C4A53610B4B1B691B680A4A11
:10CDE0009361094B1B695B68074AD36100BF72B648
:10CDF00000BF00BF9DF81730DBB2002BFAD162B63E
:10CE000000BF00BF06B070473827002000B583B0D0
:10CE100002900091019244F2010071466A4600F0CE
:10CE200003F803B000BD00BF30B58BB0079006918A
:10CE3000059272B600BF09F017FD00BF09F0D2FAE3
:10CE40000346002BFAD1079B44F2020293422FD0F3
:10CE5000079B44F20202934269D8079B44F2010205
:10CE6000934237D0079B44F2010293425FD8079B5D
:10CE7000012B05D0079B41F2010293420CD056E0F2
:10CE8000394A3A4BD31ADB081B0443F001033849F3
:10CE9000184609F035FA57E0334A344BD31ADB0809
:10CEA0001B0443F001033349184609F029FA4BE00B
:10CEB000059B09932C4A2D4BD31ADB081B0443F026
:10CEC0000100099B5B681A46099B1B682A4909F007
:10CED00036FA39E0059B0893234A244BD31ADB0822
:10CEE0001B0443F00104089B9D68089B9B6818463F
:10CEF00004F06AFC03461846089B5B681946089BC9
:10CF00001B68069A02920193009103462A461B4928
:10CF1000204609F03EFA144A144BD31ADB081B04CE
:10CF200043F001031649184609F0EAF90CE00E4AED
:10CF30000E4BD31ADB081B0443F00103069A114978
:10CF4000184609F0EBF900BF0F4B1B6803F0010313
:10CF5000002B00D000BE059A06990798FFF70AFF3C
:10CF600000BF0BB030BD00BF943F0300543F03002F
:10CF700018410300384103005C410300784103007D
:10CF8000A0410300B4410300F0ED00E02DE9F043BF
:10CF900083B0144801F009F8034600221C461546E8
:10CFA000114BD3E9002314EB020845EB0309CDE94B
:10CFB00000890E4BD3E90023DDE90001904271EBBB
:10CFC000030307D2DDE9002312F1807643F1000765
:10CFD000CDE90067DDE900231046194603B0BDE83E
:10CFE000F08300BF1C260020602700206827002057
:10CFF00088B001900091019B0793009B0693079BCB
:10D00000D3E90223CDE90423069BD3E90223CDE92A
:10D010000223DDE90423DDE90201904271EB030301
:10D020002CBF01230023DBB2184608B07047000074
:10D03000F0B585B00190019B5B69002B03D12B49B2
:10D04000A2200BF0F9FD00238DF80F30284B1B7840
:10D05000002B45D0019B002B42D0019B1B7FDBB2F4
:10D06000002B3DD0FFF792FF019BD3E902239042B2
:10D0700071EB03032CD3019B1B69002B02D1019B95
:10D0800000221A77019B5B69019A926910469847C2
:10D09000019B1B69002B23D0019B1B7FDBB2002B64
:10D0A0001ED0019BD3E902230199096900200C4697
:10D0B0000546161943EB0507019BC3E90267019B6F
:10D0C00019460C4804F0DAFA01238DF80F3007E016
:10D0D000019B1946074804F0D1FA01238DF80F305F
:10D0E0009DF80F30184605B0F0BD00BFD8410300D1
:10D0F0005C27002064420300F0B589B001900091E4
:10D100000D230793009B00221A70019BD3E902456F
:10D11000FFF73CFF02460B46A61A65EB0307CDE975
:10D120000467DDE90423012A73F100031BDB049B80
:10D13000B3F5350F05D300F0A9FA0246154B134499
:10D1400003E0019BD3E90223134603934FF49603B4
:10D15000039A0021104800F01BFE0790079B002B4C
:10D1600005D1012313E000210B4800F0E9FE079BE5
:10D170000D2B07D10198FFF75BFF03461A46009B72
:10D180001A7003E00549F5200BF056FD0023184600
:10D1900009B0F0BDFFFFB4001C260020D8410300F9
:10D1A00000B583B0044804F0A3FA0190019B18462F
:10D1B00003B05DF804FB00BF6442030000B583B018
:10D1C000044804F0B7FA0190019B184603B05DF8DB
:10D1D00004FB00BF6442030000B583B0FFF7E0FF2B
:10D1E0000190019B002B02D0019B00221A77019B2A
:10D1F000002BF3D100BF00BF03B05DF804FB0000BB
:10D20000054BD3E9002312F1807043F10001024B7A
:10D21000C3E9000100BF70476027002010B582B04D
:10D220000190124B1B68002B1DD0019800F0BDFE31
:10D2300004460021019800F0A9FE03461946204645
:10D2400000F018FA0346B3F5960F04D308494FF4DB
:10D2500095700BF0F1FC054B1B681846FFF7E8FED4
:10D26000024B00221A6000BF02B010BD58270020F8
:10D27000D841030000B583B00190FFF787FE024656
:10D280000B460349C1E9002300BF03B05DF804FB6E
:10D290006827002000B585B00190FFF78FFF03904D
:10D2A00000238DF80B30039B002B48D02B4B1B68C1
:10D2B000002B03D101238DF80B3019E0039BD3E938
:10D2C0000201264B1B68D3E90223904271EB030352
:10D2D0000ED201238DF80B30204B1B681B7FDBB275
:10D2E000002B05D01D4B1B6819461D4804F0C6F9DC
:10D2F0009DF80B30002B2AD0FFF752FF03900DF161
:10D300000A0319460398FFF7F7FE0346002B12D0D5
:10D31000124B1B68002B02D1019800F045FC0F4A0C
:10D32000039B13609DF80A3083F00103DBB2002BEE
:10D33000B3D000BF0EE0094B00221A60ADE7074BE7
:10D340001B68002B05D1019800F044FC01E000BFF0
:10D3500000E000BF00BF05B05DF804FB58270020C7
:10D360006442030000B587B001902C4A03AB194614
:10D37000104602F072FA059048E0059B1B78022BDC
:10D380002ED0022B32DC002B02D0012B14D02DE04A
:10D39000059B5B681B7FDBB283F00103DBB2002BD4
:10D3A00026D0059B5B6801221A77059B5B681946AE
:10D3B0001B4804F063F91BE0059B5A68194B1B6876
:10D3C0009A4203D1174B00221A6012E0059B5B685A
:10D3D0001946134804F0C2F903468DF8133008E0EB
:10D3E000FFF7FAFE104B01221A7002E000BF00E0C6
:10D3F00000BF0A4A03AB1946104602F047FA074A33
:10D4000003AB1946104602F028FA0590059B002B45
:10D41000B3D100BF00BF07B05DF804FBC8270020F0
:10D4200064420300582700205C27002000B583B029
:10D430000190019800F077FD0346002B01D0FFF723
:10D44000DFFE0021019800F08CFD0346002B02D086
:10D450000198FFF7E3FE0121019800F082FD0346E9
:10D46000002B02D00198FFF705FF0198FFF77AFF24
:10D470000198FFF70FFF00BF03B05DF804FB000049
:10D4800008B5024800F09EFD00BF08BD1C26002024
:10D4900000B585B0034600918DF80730114A02AB04
:10D4A0001946104602F0ACF90390039B002B13D0F1
:10D4B000039B9DF807201A70039B009A5A60094A43
:10D4C00002AB1946104602F0B4F90346002B01D016
:10D4D000FFF7D6FF002300E00423184605B05DF8EF
:10D4E00004FB00BFC827002000B583B0164B1B68A3
:10D4F0000093164808235822154902F04EF901906E
:10D50000019B002B01D0019B19E06B46114A194683
:10D51000114800F0CBFA0190019B002B01D0019B38
:10D520000DE001210C4800F0EDFC01230B4A012124
:10D53000094800F065FB0A4B01221A70019B18464E
:10D5400003B05DF804FB00BF60420300C827002061
:10D55000702700202DD401001C260020FFFF7F0033
:10D560005C27002000B587B003900B4601928DF830
:10D570000B30039B002B04D1134940F22E200BF0FB
:10D580005BFB019B002B04D10F4940F22F200BF0D5
:10D5900053FB019B002B01D1072310E0039B1B6869
:10D5A0000593059B019A5A619DF80B30012B0CBF26
:10D5B00001230023DBB21A46059B1A61002318469B
:10D5C00007B05DF804FB00BFD8410300F0B587B099
:10D5D000039002910192039B002B04D1164940F263
:10D5E0003E200BF029FB039B0593059B1B7FDBB2C1
:10D5F000002B01D000231CE0059B019A9A61FFF7E4
:10D60000C5FC02460B46029900200C460546161939
:10D6100043EB0507059BC3E90267059B1B69002BCC
:10D6200002D0059B029A1A6105990020FFF730FF8E
:10D630000346184607B0F0BDD841030000B585B0D9
:10D640000190019B002B04D109494FF415700BF098
:10D65000F3FA019B0393039B00221A77039901209D
:10D66000FFF716FF0346184605B05DF804FB00BF40
:10D67000D841030082B001900091019A009BD31A17
:10D6800023F07F43184602B07047000008B50348F6
:10D6900000F08BFC0346184608BD00BF1C26002086
:10D6A00082B0EFF310830093009B019372B600BF2A
:10D6B000019B184602B0704762B600BF00BF7047BA
:10D6C00000B585B00190FFF7EBFF0390164B9B6808
:10D6D000002B1BD1144B01229A60144BD3F88020ED
:10D6E000134B1340104A1360104B114AC3F88020AB
:10D6F0000E4BD3F884300C4A53600C4B4FF0FF3282
:10D70000C3F88420019B00221A7002E0019B0122D1
:10D710001A70039B002B01D1FFF7CEFF00231846A0
:10D7200005B05DF804FB00BFDC27002000E100E04D
:10D73000FC06FFBD00B585B003468DF80730104BE1
:10D740009B68002B16D09DF80730002B12D1FFF7F5
:10D75000A7FF03900B4A0A4B1B681360094A084B4A
:10D760005B685360064B00229A60039B002B01D13B
:10D77000FFF7A2FF0023184605B05DF804FB00BFC9
:10D78000DC27002000E100E000B583B0019000F04C
:10D790002BF80346012B03D0054943200BF04CFA2C
:10D7A0000198FFF78DFF00BF03B05DF804FB00BFD9
:10D7B0007042030000B583B003468DF8073000F0D7
:10D7C00013F80346012B03D0064951200BF034FA1D
:10D7D0009DF807301846FFF7ADFF00BF03B05DF8B6
:10D7E00004FB00BF7042030084B0EFF30583019394
:10D7F000019BC3F308030393039B002B0DD1EFF3AD
:10D8000014830093009B0293029B03F00103002BFF
:10D810000CBF01230023DBB200E00123184604B053
:10D820007047000082B003468DF807309DF907303D
:10D83000002B0CDB9DF8073003F01F0205499DF912
:10D8400007305B09012000FA02F241F8232000BFF3
:10D8500002B0704700E100E082B003468DF8073067
:10D860009DF90730002B0DDB9DF8073003F01F02F8
:10D8700006499DF907305B09012000FA02F24033A6
:10D8800041F8232000BF02B0704700BF00E100E074
:10D8900082B0034600918DF807309DF90730002BC8
:10D8A0000ADB009BDAB20C499DF907305201D2B273
:10D8B0000B4483F800230BE0009BDAB207499DF884
:10D8C000073003F00F03043B5201D2B20B441A7627
:10D8D00000BF02B0704700BF00E100E000ED00E0D3
:10D8E00000B583B003460A468DF8073013468DF81D
:10D8F00006309DF80630012B03D99DF80630032B26
:10D900000BD99DF80630042B03D99DF80630072B60
:10D9100003D908496B200BF08FF99DF806209DF97B
:10D92000073011461846FFF7B3FF00BF03B05DF89C
:10D9300004FB00BFFC42030000B583B003468DF832
:10D9400007309DF907301846FFF76CFF00BF03B0A2
:10D950005DF804FB00B585B00190019B002B0AD057
:10D96000074B43F001030393019B9B010293039B2D
:10D970000298984700E000BF05B05DF804FB00BFC7
:10D980004044030084B0039002910192039B029AE9
:10D9900002F5A872019943F8221000BF04B0704745
:10D9A00082B001900091019B009A02F5A87253F891
:10D9B0002230184602B0704782B001900091019B5E
:10D9C000009AC3F8042300BF02B0704782B00190F0
:10D9D0000091019B009AC3F8082300BF02B0704772
:10D9E00082B001900B46ADF80230BDF80230019ACA
:10D9F00013441B68184602B0704784B001900B4670
:10DA0000ADF80230BDF80230019A134400221A60CA
:10DA1000BDF80230019A13441B680393039B00BFB7
:10DA200004B0704782B00190019BD3F804351846CA
:10DA300002B0704700B583B001900091009BB3F530
:10DA4000805F04D306494FF4BE700BF0F5F8019BDC
:10DA5000009AC3F8082500BF03B05DF804FB00BFBF
:10DA60003443030082B001900B468DF803309DF8DB
:10DA70000320019B13441A460123136000BF02B028
:10DA8000704782B001900091019B009AC3F8442333
:10DA900000BF02B0704782B001900091019B009AD4
:10DAA000C3F8482300BF02B07047000000B587B03C
:10DAB000039002910192039B002B03D1334955201F
:10DAC0000BF0BAF8029B002B03D1304956200BF023
:10DAD000B3F8019B002B03D12C4957200BF0ACF875
:10DAE000039B5B7919462A4A019B42F82130039B2C
:10DAF0005B79284ADB0013441B79002B0ED00823E6
:10DB00000593254A254BD31ADB081B0443F0020377
:10DB10002349184608F0F4FB059B32E0039B1A6882
:10DB2000029B1B8819461046FFF784FF039B93F95D
:10DB30000420029B9B7819461046FFF7D1FE039BF9
:10DB400093F904301846FFF7F7FE039B5B79114AFF
:10DB5000DB00134401221A71039B5B7919460D4ABD
:10DB6000039B42F83130002305930B4A0B4BD31A29
:10DB7000DB081B0443F003030A49184608F0C0FB06
:10DB8000059B184607B05DF804FB00BF684303001F
:10DB9000E8270020EC270020A43F0300543F0300A7
:10DBA000EC4303001044030000B583B00190019BD7
:10DBB000002B03D1064987200BF03EF8019B1B6820
:10DBC00000211846FFF74EFF00BF03B05DF804FBCD
:10DBD0006843030000B583B00190019B002B03D183
:10DBE00006498D200BF028F8019B1B68042118467C
:10DBF000FFF738FF00BF03B05DF804FB6843030084
:10DC000000B587B00390029101928DF80330039B19
:10DC1000002B03D1214996200BF00EF84FF48032EF
:10DC2000029B02FA03F30593029B50339BB29B00C5
:10DC3000ADF81230019B23F07F430193039B1B68D7
:10DC400005991846FFF7C2FE039B1B680599184605
:10DC5000FFF721FF039B1B68BDF8122011461846F1
:10DC6000FFF7CBFE039B1B68019A02991846FFF74A
:10DC700089FE039B1B6805991846FFF702FF9DF874
:10DC80000330002B05D0039B1B6805991846FFF74E
:10DC900093FE00BF07B05DF804FB00BF68430300BC
:10DCA00000B585B00390029113468DF80730039BB1
:10DCB000002B03D10B49A9200AF0BEFF039B1B6870
:10DCC00002991846FFF7DDFE9DF80730002B05D0BE
:10DCD000039B1B6802991846FFF76EFE00BF05B054
:10DCE0005DF804FB6843030000B583B00190009128
:10DCF000019B002B03D10A49B3200AF09DFF019B31
:10DD00001B6800991846FFF7C6FE019B1B68009927
:10DD10001846FFF75BFE00BF03B05DF804FB00BFD1
:10DD20006843030000B583B001900B46ADF80230A4
:10DD3000019B002B03D10F49BA200AF07DFF019B04
:10DD40001B68BDF8022011461846FFF749FE03463E
:10DD5000002B09D0019B1B68BDF802201146184614
:10DD6000FFF74BFE012300E00023184603B05DF8E7
:10DD700004FB00BF6843030082B001900091019A48
:10DD8000009BD31A23F07F43184602B0704700006F
:10DD900000B58BB00390029101920093039B002B7E
:10DDA00003D15749CD200AF047FF4FF48032029B40
:10DDB00002FA03F30993029B50339BB29B00ADF828
:10DDC0002230019B23F07F43019309990398FFF7C9
:10DDD0008BFF039B1B681846FFF724FE0790039BED
:10DDE0001B6802991846FFF7DBFD0690039B1B6832
:10DDF000079A02991846FFF7C5FD039B1B68BDF8FB
:10DE0000222011461846FFF7F8FD07990698FFF7FC
:10DE1000B3FF0346012B0AD11020FFF79BFD039BA4
:10DE20001B68BDF8222011461846FFF7E6FD039B4C
:10DE30001B681846FFF7F6FD079007990198FFF752
:10DE40009BFF0590039B1B6809991846FFF719FE75
:10DE5000059B012B15D1039B1868019B01331A46C2
:10DE60000299FFF78FFD1020FFF774FD039B1B68DD
:10DE70001846FFF7D7FD0246079B934235D00D2386
:10DE800039E0039B1B68019A02991846FFF77AFD57
:10DE9000039B1B681846FFF7C5FD0790019B013BDC
:10DEA00007991846FFF768FF0590009BC3F1FF1321
:10DEB00003F57F43059A9A4201D90D231BE0059B88
:10DEC000002B12D1039B1868019B01331A4602995B
:10DED000FFF758FD039B1B681846FFF7A3FD02469A
:10DEE000079B934201D00D2305E001220999039875
:10DEF000FFF7D6FE002318460BB05DF804FB00BF09
:10DF00006843030000B583B001900B468DF80330E1
:10DF10009DF803301A4602210198FFF7C1FE00BFA9
:10DF200003B05DF804FB00B583B001904FF482713B
:10DF30000198FFF7F7FE0346184603B05DF804FBAF
:10DF400000B583B0019000914FF48032009B02FA3B
:10DF500003F319460198FFF7C7FE00BF03B05DF851
:10DF600004FB00B585B001900091009B50339BB23B
:10DF70009B00ADF80E30BDF80E3019460198FFF742
:10DF8000D1FE0346184605B05DF804FB00B583B02A
:10DF900001900091019B1B6800991846FFF700FD56
:10DFA0000346184603B05DF804FB00B583B001904A
:10DFB000019B1B681846FFF735FD0346184603B062
:10DFC0005DF804FB00B583B00190019B93F9043028
:10DFD0001846FFF741FC00BF03B05DF804FB0000EA
:10DFE00008B5044B1B68044A12681046984700BFE6
:10DFF00008BD00BFE8270020EC27002082B0019078
:10E00000019B03F00303002B0CBF01230023DBB2B1
:10E01000184602B07047000000B585B0019000239B
:10E0200003930EE00B4A039B52F82330002B05D0DC
:10E03000084A039B52F8233001989847039B013309
:10E040000393039B032BEDD900BF00BF05B05DF820
:10E0500004FB00BF0028002082B001900091019BCA
:10E060001B78013B052B61D801A252F823F000BFB9
:10E0700089E0010091E00100B7E00100E9E0010062
:10E0800009E1010025E10100009B00221A704EE029
:10E09000009B01221A70019B1A89009B9A81019BA7
:10E0A0009A88009BDA81019BDA68009B9A60009B4A
:10E0B00000221A743BE0009B02221A70019B1A890D
:10E0C000009B9A81019B9A88009BDA81019BDA6808
:10E0D000009B9A60019B9B7D062B0CBF01230023B4
:10E0E000DAB2009B1A7422E0009B03221A70019B93
:10E0F000DA88009B9A81019B1A89009BDA81019B37
:10E10000DA68009B9A6012E0009B04221A70019B5F
:10E11000DA88009B9A81009B0022DA81009B002212
:10E120009A6004E0009B05221A7000E000BF00BF67
:10E1300002B0704784B001900091019B0393039A51
:10E14000009B9A4206D2039B1B68B3F1FF3F01D0AC
:10E15000012300E0002303F00103DBB2184604B002
:10E16000704782B00190019B5B8803339B00019A4A
:10E170001344184602B0704700B583B00190009177
:10E180000198FFF7EEFF0246009B934201D2022363
:10E1900011E0019B9B884FF6FF72934208D0019BD0
:10E1A0001B88002B04D0019B9B68B3F1FF3F01D17A
:10E1B000012300E00023184603B05DF804FB0000D3
:10E1C00000B583B00190019B002B13D00D4BDB6891
:10E1D0001A46019B93420DD30A4B1B691A46019BB9
:10E1E000934207D80198FFF709FF0346002B01D09F
:10E1F000012300E0002303F00103DBB2184603B063
:10E200005DF804FB0826002082B003460A46ADF8FC
:10E2100006301346ADF80430BDF806201349134606
:10E220009B0013449B000B4408331A88BDF804304C
:10E230001344ADF80430BDF806200C4913469B008A
:10E2400013449B000B440A331A88BDF8043013446E
:10E25000ADF80430BDF80430B3F5806F94BF0123EE
:10E260000023DBB2184602B0704700BF242800200C
:10E2700084B00190009148F2096303930023ADF844
:10E280000A3027E0BDF80A20164913469B001344C4
:10E290009B000B4404331B68009A9A4215D9BDF8C1
:10E2A0000A20104913469B0013449B000B4404337F
:10E2B0001B6803F58053009A9A4206D20023039309
:10E2C000019BBDF80A201A8008E0BDF80A3001332E
:10E2D000ADF80A30BDF80A30012BD3D9039B18469C
:10E2E00004B070472428002082B001900091009B68
:10E2F0009B7D022B09D9019B1A89009BDB88134463
:10E300009BB203339AB2019B1A81019B5A89009BED
:10E31000DB88D31A9BB2033B9AB2019B5A8100BFA0
:10E3200002B0704700B583B0074B1B681946002345
:10E3300000930823054A064802F03CF903461846B4
:10E3400003B05DF804FB00BF4C280020C444030068
:10E350000826002000B585B00390039900230093A0
:10E360000823044A044802F025F90346184605B07C
:10E370005DF804FBCC4403000826002000B585B0FE
:10E3800003460091ADF8063000238DF80F30BDF83C
:10E3900006300333ADF80A30BDF80A3040F2FE32E1
:10E3A000934202D948F208634BE00023ADF80C30E9
:10E3B0003BE0BDF80C20254913469B0013449B000D
:10E3C0000B441B78002B2BD1BDF80A20BDF80C3074
:10E3D00011461846FFF718FF0346002B20D00123F3
:10E3E0008DF80F30009BBDF80C201A80BDF80C2072
:10E3F000164913469B0013449B000B440A331988AB
:10E40000BDF80C20BDF80A300B4498B20F491346F2
:10E410009B0013449B000B440A3302461A8008E019
:10E42000BDF80C300133ADF80C30BDF80C30012BC9
:10E43000BFD99DF80F30002B01D0002301E048F236
:10E440000663184605B05DF804FB00BF24280020D1
:10E4500082B003460A46ADF806301346ADF80430E4
:10E46000BDF804200D4913469B0013449B000B4448
:10E470000A331A88BDF80630D31A9BB2BDF80420BF
:10E48000033B98B2054913469B0013449B000B4481
:10E490000A3302461A8000BF02B0704724280020C9
:10E4A00008B50121024801F060FB0346184608BD8B
:10E4B0001028002000B585B003460091ADF8063065
:10E4C000BDF80620244913469B0013449B000B44CF
:10E4D00004331B6803F580530293009B1B6803936E
:10E4E000039B002B04D00398FFF73BFE039026E02C
:10E4F000BDF80620184913469B0013449B000B44AB
:10E5000004331B680833039319E002990398FFF75B
:10E5100033FE0346022B10D0022B10DC002B02D05E
:10E52000012B05D00BE0009B039A1A6001230EE03B
:10E530000398FFF716FE039001E0002307E002991D
:10E540000398FFF7F7FD0346002BDED100231846A2
:10E5500005B05DF804FB00BF2428002000B585B09D
:10E5600001900091019B5B681846FFF729FE034666
:10E57000002B19D0019B1A89244B1B899A4213D175
:10E58000019B1A68019B5B689B689A420CD1019BB6
:10E590005B6819460098FFF76BFE0346002B0CBF23
:10E5A00001230023DBB22CE0009B00221A8023E031
:10E5B0000023029310E0029B0393039B9A68019B44
:10E5C0001B689A4208D1029A019B5A600F4B1A8924
:10E5D000019B1A81012314E0009B1B8802AA1146AB
:10E5E0001846FFF767FF0346002BE4D1009B1B880A
:10E5F00001339AB2009B1A80009B1B88012BD7D94C
:10E600000023184605B05DF804FB00BF5428002025
:10E6100000B587B00390029101920093324B1B78B2
:10E62000DBB283F00103DBB2002B02D048F20163BE
:10E6300055E0019B002B02D0009B002B49D148F2F2
:10E6400004634CE0009B9B881946284A0B469B00BC
:10E650000B449B0013441B78002B33D124E0009B18
:10E660001B680593039B002B06D0059B9A88039B90
:10E670001B889A4200D017E0029B002B06D0059B16
:10E680001A88029B1B889A4200D00DE0059B9A686D
:10E69000019B1A60009B1A68019B5A60144B1A89EF
:10E6A000019B1A8100231AE0009B9B88009A114667
:10E6B0001846FFF7FFFE0346002BD0D1009B002237
:10E6C0001A6000E000BF009B9B8801339AB2009B58
:10E6D0009A80009B9B88012BB4D948F209631846A5
:10E6E00007B05DF804FB00BFF427002024280020B9
:10E6F0005428002000B585B00190084B01991846B8
:10E7000001F07EF803901C220021039812F053FFC1
:10E71000039B184605B05DF804FB00BF14280020D9
:10E7200000B583B00190044B0199184601F081F8BF
:10E7300000BF03B05DF804FB1428002000B583B0CF
:10E740000190054B0199184601F087F803461846D9
:10E7500003B05DF804FB00BF1428002000B583B0AF
:10E760000190044B0199184601F090F800BF03B0E6
:10E770005DF804FB1428002008B50A4B1B68002B29
:10E7800004D109494FF424700AF056FA01210548D2
:10E7900001F003FA0346002B14BF01230023DBB270
:10E7A000184608BDFC2700204844030000B587B088
:10E7B00003900291039B02229A750299039B1A1DF2
:10E7C000002300930423074801F0F4FE0590059B05
:10E7D000002B01D1002301E048F20D63184607B079
:10E7E0005DF804FB0826002000B587B00390029175
:10E7F000039B1B69002B01D0032200E00122039B35
:10E800009A75029B08331946039B03F10C020023FF
:10E8100000930423074801F0CDFE0590059B002BD3
:10E8200001D1002301E048F20D63184607B05DF8FE
:10E8300004FB00BF0826002000B587B003900291BA
:10E84000039B1B78032B01D1052200E00622039BCA
:10E850009A75029B04331946039B03F108020023B7
:10E8600000930423074801F0A5FE0590059B002BAB
:10E8700001D1002301E048F20D63184607B05DF8AE
:10E8800004FB00BF0826002000B587B003900B46AC
:10E89000ADF80A3003990023009304230D4A0E4873
:10E8A00001F088FE0590059B002B02D048F20D6315
:10E8B0000BE0BDF80A20094913469B0013449B0056
:10E8C0000B44103301221A700023184607B05DF87C
:10E8D00004FB00BFD44403000826002024280020A5
:10E8E00000B589B0019002AB00221A605A609A60AC
:10E8F000019BDB6802930DF1160202AB114618462C
:10E90000FFF72CFE0346002B12D0039B0693069BB9
:10E910009A88019BDA80069B1A88019B1A81039BC7
:10E92000BDF8162011461846FFF7AEFF079002E02B
:10E9300048F209630793079B184609B05DF804FB8A
:10E9400000B587B00190019B981D02AA0D4B0021D4
:10E95000FFF75EFE0590059B002B08D1039B094A3B
:10E96000928811461846FFF78FFF059004E00822B1
:10E970000021044812F01FFE059B184607B05DF801
:10E9800004FB00BF6428002000B587B0039002910B
:10E99000039B01229A75029B0C331846039B1A694C
:10E9A000039BDB889B00002100910146074801F092
:10E9B00001FE0590059B002B01D1002301E048F2E8
:10E9C0000D63184607B05DF804FB00BF0826002061
:10E9D00082B0184B1B8901339AB2164B1A81154B22
:10E9E00000225A80134B00221A730023ADF8063020
:10E9F00018E0BDF80620104913469B0013449B0005
:10EA00000B441A78BDF80630002A0CBF0122002200
:10EA1000D1B2084A13440A469A72BDF8063001334F
:10EA2000ADF80630BDF80630012BE2D900BF00BFBB
:10EA300002B07047542800202428002084B00190A0
:10EA400000238DF80F300023ADF80C3031E0BDF815
:10EA50000C301C4A13449B7A002B25D0BDF80C3097
:10EA6000184A134400229A72BDF80C201649134626
:10EA70009B0013449B000B440C331B68002B13D1E9
:10EA8000BDF80C20104913469B0013449B000B4417
:10EA900010331B78002B07D0019BBDF80C201A8087
:10EAA00001238DF80F3008E0BDF80C300133ADF8CC
:10EAB0000C30BDF80C30012BC9D99DF80F30184629
:10EAC00004B07047542800202428002008B5084BC3
:10EAD00005221A70074B02229A80064B1B681946C2
:10EAE00000230122044801F047FE0346184608BDF2
:10EAF000542800204C2800200826002000B583B0B0
:10EB0000164B5B88ADF80230BDF80220144913465D
:10EB10009B0013449B000B440C331B68002B14D147
:10EB20000E4B04221A70BDF802200D4913469B00BB
:10EB300013449B000B4404331B6819460023012235
:10EB4000084801F019FE019002E0FFF7BFFF0190B5
:10EB5000019B184603B05DF804FB00BF5428002059
:10EB6000242800200826002000B587B0104B5B68E1
:10EB70000593104B1A680F4B9B889B00134404931A
:10EB8000059B5B880333ADF80E30094B03221A70E6
:10EB90000499074B5A68BDF80E309B000020009086
:10EBA000054801F007FD0346184607B05DF804FB71
:10EBB000542800204C2800200826002000B583B0EF
:10EBC0000A4B5B880A491846FFF774FC0346002B82
:10EBD00003D0FFF7C9FF019002E0FFF78FFF01901C
:10EBE000019B184603B05DF804FB00BF54280020C9
:10EBF0005828002008B50A4B06221A70084B5B887B
:10EC00001946084A0B469B000B449B0013440433EF
:10EC10001B681846FFF79EFB0346184608BD00BF59
:10EC2000542800202428002008B5054B07221A701C
:10EC3000034B00225A60FFF775FB0346184608BDD8
:10EC40005428002008B50D48FFF7F8FE034683F06E
:10EC50000103DBB2002B0BD0094B00221A70084BCA
:10EC600000225A80064B00225A6041F61D5302E0F2
:10EC7000FFF7A4FF0346184608BD00BF5628002032
:10EC80005428002082B0094B5B680193019B5B888C
:10EC90000333ADF80230064B9A88BDF802301344B6
:10ECA0009AB2034B9A8000BF02B0704754280020EC
:10ECB0004C28002082B01E4B1B6801931D4B5B88C3
:10ECC00019461D4A0B469B000B449B00134404331A
:10ECD0001B68174A1360174B5B881946164A0B4688
:10ECE0009B000B449B0013440433019A1A60114BA0
:10ECF0005B8819460E4B98880F4A0B469B000B44C5
:10ED00009B001344083302461A80094B02229A8062
:10ED1000084B5B881946084A0B469B000B449B0036
:10ED20001344103300221A7000BF02B0704700BFB6
:10ED30004C280020542800202428002008B51A4B15
:10ED40001B78072B2CD801A252F823F06DED01009F
:10ED5000A1ED0100A1ED010079ED010085ED0100BB
:10ED600091ED010091ED010099ED0100FFF730FEFA
:10ED70000D4B01221A7014E0FFF784FF0A4B0222A8
:10ED80001A700EE0FFF796FF074B06221A7008E094
:10ED9000054B07221A7004E0034B01221A7000E0B1
:10EDA00000BF00BF08BD00BF5428002000B587B0D9
:10EDB0000190009148F20E630593019B002B05D052
:10EDC000634B00225A604FF40643BCE0009B1B7962
:10EDD000032B00F2AB8001A252F823F0EDED01000D
:10EDE000FBED010089EE0100A9EE0100009B01226C
:10EDF0001A71FFF797FA05909BE000238DF8133006
:10EE00000023ADF810302BE0BDF810205149134617
:10EE10009B0013449B000B441B78022B1BD1BDF8B5
:10EE200010204C4913469B0013449B000B440022C6
:10EE30001A7001238DF81330BDF810204549134690
:10EE40009B0013449B000B4404331B681846FFF7D8
:10EE500081FA059008E0BDF810300133ADF81030AC
:10EE6000BDF81030012BCFD99DF8133083F001038A
:10EE7000DBB2002B5CD0364B01221A70344B0022DF
:10EE80005A6041F61D535EE0009B00221A71324B1E
:10EE900002229A80304B1B681946002301222F481A
:10EEA00001F06AFC059044E0009B00221A712A4B95
:10EEB0001B681846FFF74EFA0590294B5B88ADF8A2
:10EEC0000E30254B1B680293BDF80E2021491346D6
:10EED0009B0013449B000B4404331B681E4A1360C1
:10EEE000BDF80E201B4913469B0013449B000B44A6
:10EEF0000433029A1A60BDF80E20174B9888154902
:10EF000013469B0013449B000B44083302461A80AF
:10EF1000114B02229A80BDF80E200E4913469B0029
:10EF200013449B000B4400221A7002E000BF00E073
:10EF300000BF059B002B05D0054B00225A6048F20C
:10EF40000D6300E00023184607B05DF804FB00BF26
:10EF5000F4270020242800204C2800200826002028
:10EF60005428002000B587B001900091009B9B8A37
:10EF70001A4613469B0013449B003B4A13440493D8
:10EF8000019B002B06D000990498FFF7ADF94FF4D0
:10EF9000064364E0049B5A68049B1B899B0013444E
:10EFA0000393009B9B7D062B4DD801A252F823F0C2
:10EFB000F5EF010019F0010001F001000DF0010072
:10EFC000CDEF010025F001003FF00100274B0022AA
:10EFD0005A60009B9B69254A136025492348FFF727
:10EFE000BDFA034683F00103DBB2002B02D048F2E6
:10EFF000096334E003990098FFF7D8FB059026E0F9
:10F0000003990098FFF7F0FB059020E00399009822
:10F01000FFF7BAFC05901AE003990098FFF70CFC83
:10F02000059014E0009B06229A75104B5B68104A0D
:10F03000128811461846FFF727FC059007E041F6B5
:10F040001D53059303E048F20E63059300BF059B33
:10F05000002B03D000990498FFF746F9059B18464A
:10F0600007B05DF804FB00BF242800206C280020B6
:10F070007828002000B585B001900091019B002BFD
:10F0800002D04FF4064329E0009B1B79022B1BD0D2
:10F09000022B1DDC002B02D0012B08D018E0009BB6
:10F0A00002221A710098FFF71BFC039015E00098EC
:10F0B000FFF746FC0390039B48F2096293420BD191
:10F0C00041F61D53039307E041F61D53039304E0FB
:10F0D00048F20E63039300E000BF039B184605B09F
:10F0E0005DF804FB00B585B00190019B002B02D0B8
:10F0F0004FF406433DE0214B1B7B002B03D01F4BFD
:10F1000000221A7301E0FFF719FE1C4B1B78013B2C
:10F11000062B29D801A252F823F000BF39F10100D3
:10F1200041F1010049F1010051F1010069F10100D3
:10F1300059F1010061F10100FFF784FD039017E030
:10F14000FFF73CFD039013E0FFF70EFD03900FE087
:10F15000FFF7D4FC03900BE0FFF74CFD039007E0B2
:10F16000FFF762FD039003E048F20E63039300BFD4
:10F17000039B184605B05DF804FB00BF542800202F
:10F1800000B589B00190404B1B68002B05D13F486A
:10F19000FFF7D4FA03463C4A13603B4B1B68002B35
:10F1A00004D13B4940F29E5009F046FD364B1B68A6
:10F1B0001B78013B052B2CD801A252F823F000BF8D
:10F1C000D9F10100E9F10100E9F10100F9F10100D3
:10F1D000F9F1010009F201002B4B1B681946019857
:10F1E000FFF7E4FD019018E0274B1B6819460198D2
:10F1F000FFF7B8FE019010E0234B1B6819460198F9
:10F20000FFF738FF019008E00198FFF76BFF0190CE
:10F2100003E048F20E63019300BF019B002B2BD04B
:10F2200003AB00221A605A609A60DA601A61019B8F
:10F2300041F61D52934201D0019B00E0002304934C
:10F24000114B1B6803AA11461846FEF705FF03ABD6
:10F250001846FEF7E1FE0C4B00221A6000230193D2
:10F260000A48FFF77BFAFFF787FA034683F00103AA
:10F27000DBB2002B02D186E700BF00E000BF00BF79
:10F2800009B05DF804FB00BF7C2800208028002026
:10F290004844030008B50121054800F04EFC034630
:10F2A000002B02D10020FFF76BFF00BF08BD00BF9D
:10F2B000FC27002000B583B00190019B5B681846D5
:10F2C000FFF75EFF00BF03B05DF804FB00B58BB035
:10F2D0000390029101928DF803300023ADF82430A1
:10F2E0000023ADF82630534B1B78DBB283F00103CB
:10F2F000DBB2002B02D048F2016397E0029B002BA7
:10F3000002D148F2046391E0029B1B884FF6FF7222
:10F31000934203D0029B5B88002B02D148F2036327
:10F3200084E0029B5B681846FEF768FE034683F0A4
:10F330000103DBB2002B02D048F2026376E0019BAE
:10F34000002B11D1029B9B68ADF826300DF11A02FB
:10F35000BDF8263011461846FFF710F80890089BB4
:10F36000002B09D0089B61E0019B1B88ADF81A3087
:10F37000019B5B88ADF8263005AB1846FFF7BAF95C
:10F380000790079B002B0AD1BDF81A20BDF8263044
:10F3900011461846FFF75CF848F2076346E0079B02
:10F3A0009DF803201A70079B00229A75BDF81A2059
:10F3B000079B9A82029B5A68079B1A61FFF770F8B5
:10F3C0000246079BDA60029B1A88079B1A81029B00
:10F3D0005A88079B9A80079BBDF82620DA809DF803
:10F3E0000330032B06D1079B04229A75039B1A68EE
:10F3F000079B9A61079BBDF824205A8105AB1846EC
:10F40000FFF78EF9039B002B0DD0039B00225A605F
:10F41000079BDA68039B1A60039B00229A72064BD3
:10F420001A89039B1A81FFF735FF002318460BB09A
:10F430005DF804FBF42700205428002000B585B0B7
:10F4400001900091019B002B02D0009B002B02D168
:10F4500048F204632AE00DF10A0319460198FFF708
:10F460007DF80346002B1FD0019B5B680393BDF81A
:10F470000A301A4613469B0013449B0008330D4A7A
:10F48000134404330121184600F06FFB009B039ADC
:10F490001A60019B5B6803F10C02009B5A60019BA0
:10F4A00001229A72002301E048F20963184605B070
:10F4B0005DF804FB2428002000B585B00190019B75
:10F4C000002B02D148F204633BE00DF10A03194618
:10F4D0000198FFF743F80346002B2ED0BDF80A3001
:10F4E00019461A4A0B469B000B449B0013440C33ED
:10F4F0001B68002B1DD0019B9B7A002B19D0BDF8F7
:10F500000A301A46114913469B0013449B000B44D2
:10F510000C331B68591E0D4813469B0013449B0077
:10F5200003440C331960019B00229A720023039359
:10F5300006E048F20563039302E048F2096303938F
:10F54000039B184605B05DF804FB00BF242800208B
:10F5500000B583B001900091022300220099019828
:10F56000FFF7B4FE0346184603B05DF804FB00B590
:10F5700083B001900091019B002B02D148F20463FB
:10F5800006E00323002200990198FFF79FFE03463F
:10F59000184603B05DF804FB00B585B00346ADF82E
:10F5A00006301A4B1B78DBB283F00103DBB2002B71
:10F5B00002D048F2016324E0BDF806304FF6FF7236
:10F5C000934202D148F203631BE002AB1846FFF7F7
:10F5D00091F80390039B002B02D148F2076310E0DF
:10F5E000039B05221A70039B01221A71039BBDF82D
:10F5F0000620DA8002AB1846FFF792F8FFF74AFEC2
:10F600000023184605B05DF804FB00BFF427002076
:10F6100000B585B0029201930346ADF80E300B465B
:10F62000ADF80C3003A90DF10E00019B029AFEF714
:10F63000EFFF0346184605B05DF804FB00B585B042
:10F64000034602910192ADF80E300DF10E01019BBF
:10F65000029A0020FEF7DCFF0346184605B05DF86D
:10F6600004FB00B585B0034602910192ADF80E305F
:10F670000DF10E00019B029A0021FEF7C9FF03461F
:10F68000184605B05DF804FB82B001900091019B23
:10F69000002B02D0009B002B02D148F2046304E04F
:10F6A000019B1A68009B1A600023184602B070473D
:10F6B00086B001900091019B53E8011F8AB2D8895E
:10F6C00002449889824228BF121A1889824202BFD6
:10F6D000BFF32F8F002307E0C2EA010243E80120B5
:10F6E0000028E9D14FF001038DF80F300590029109
:10F6F0000492029A009B1A609DF80F30DBB2184604
:10F7000006B0704784B00190019951E8013FC3EA07
:10F71000034341E80132002AF7D10392029300BF6C
:10F7200004B0704786B001900091019B53E8021F1E
:10F730001FFAA1F2D888824202BFBFF32F8F0023A5
:10F740000DE0D88902449889824228BF121AC1EA82
:10F75000024243E802200028E8D14FF001038DF86F
:10F760000F30059002910492029A009B1A609DF856
:10F770000F30DBB2184606B0704784B00190019993
:10F7800051E8023FC3EA234341E80232002AF7D19D
:10F790000392029300BF04B0704784B003900291BB
:10F7A00011461A460B46ADF806301346ADF8043044
:10F7B000029B002B01D10E231FE0BDF80630BDF8DF
:10F7C0000420B3FBF2F101FB02F29B1A9BB2002B67
:10F7D00001D0092311E0039B029A1A60039B0022C7
:10F7E0005A60039B00229A60039BBDF806209A8111
:10F7F000039BBDF80420DA810023184604B070474B
:10F8000000B585B001900091009B19460198FFF763
:10F810004FFF0346002B07D0019B1B68009A1288FC
:10F8200013440393039B00E00023184605B05DF8E2
:10F8300004FB00B583B001900091009B1A88009BE7
:10F840005B889A4204D10198FFF75CFF012300E036
:10F850000023184603B05DF804FB00B585B00190A5
:10F860000091009B19460198FFF75CFF0346002BAF
:10F8700007D0019B1B68009A528813440393039B93
:10F8800000E00023184605B05DF804FB00B583B026
:10F8900001900091009B1A88009B5B889A4204D1DA
:10F8A0000198FFF76AFF012300E00023184603B028
:10F8B0005DF804FB00B585B001900091009B5B09E9
:10F8C0009B00019A1A44009B03F01F03012101FAD7
:10F8D00003F31946104600F0E8F8039000BF05B0A6
:10F8E0005DF804FB00B583B001900091009B5B09BB
:10F8F0009B00019A1A44009B03F01F03012101FAA7
:10F9000003F31946104600F0B8F80246009B03F0D6
:10F910001F0322FA03F303F00103002B14BF01239A
:10F920000023DBB2184603B05DF804FB00B585B0D8
:10F9300001900091009B5B099B00019A1A44009B77
:10F9400003F01F03012101FA03F3DB4319461046BC
:10F9500000F0DBF8039000BF05B05DF804FB82B057
:10F9600001900091009B5B099B00019A13441A6867
:10F97000009B03F01F0322FA03F303F00103002BA3
:10F9800014BF01230023DBB2184602B0704700B554
:10F990008DB00190009100230B934BE00B9B9B00DB
:10F9A000019A13441B68DB430793079B93FAA3F365
:10F9B0000693069B0893089B002B01D1202303E0AC
:10F9C000089BB3FA83F3DBB20A932BE00B9B5B013A
:10F9D0000A9A13440993099A009B9A4226D20999DC
:10F9E0000198FFF77FFF034683F00103DBB2002B92
:10F9F00001D0099B26E00B9B9B00019A13441B68D6
:10FA0000DB430493049B93FAA3F30393039B0593B3
:10FA1000059B002B01D1202303E0059BB3FA83F360
:10FA2000DBB20A930A9B1F2BD0D900E000BF0B9BCF
:10FA300001330B93009B013B5B0901330B9A9A4204
:10FA4000ACD3009B18460DB05DF804FB10B487B032
:10FA500001900091019B009A53E8004F104643E843
:10FA6000000191F0000FF7D1059404900391059BDC
:10FA7000184607B05DF8044B704710B487B001908A
:10FA80000091019B009A53E8004F44EA020043E8CA
:10FA9000000191F0000FF6D1059404900391059BAD
:10FAA000184607B05DF8044B704710B487B001905A
:10FAB0000091019B009A53E8004F44EA020043E89A
:10FAC000000191F0000FF6D1059404900391049B7E
:10FAD000184607B05DF8044B704710B487B001902A
:10FAE0000091019B009A53E8004F04EA020043E8AA
:10FAF000000191F0000FF6D1059404900391059B4D
:10FB0000184607B05DF8044B704710B487B00190F9
:10FB10000091019B009A53E8004F04EA020043E879
:10FB2000000191F0000FF6D1059404900391049B1D
:10FB3000184607B05DF8044B704710B487B00190C9
:10FB40000091019B009A53E8004F04EB020043E848
:10FB5000000191F0000FF6D1059404900391059BEC
:10FB6000184607B05DF8044B704710B487B0019099
:10FB70000091019B009A53E8004F04EB020043E818
:10FB8000000191F0000FF6D1059404900391049BBD
:10FB9000184607B05DF8044B704710B487B0019069
:10FBA0000091019B009A53E8004FA4EB020043E848
:10FBB000000191F0000FF6D1059404900391049B8D
:10FBC000184607B05DF8044B704700B583B001904C
:10FBD00001210198FFF769FF0346184603B05DF85D
:10FBE00004FB00B583B0019000210198FFF775FF79
:10FBF0000346184603B05DF804FB000000B583B06F
:10FC000001900B468DF80330019B002B03D108496E
:10FC1000E82009F011F8019BDA689DF8033001999A
:10FC2000098A01FB03F31344184603B05DF804FB93
:10FC3000E444030000B583B001900091019B002BC8
:10FC400003D10849F52008F0F7FF009B019AD2681C
:10FC50009B1A019A128AB3FBF2F3DBB2184603B087
:10FC60005DF804FBE444030000B585B00190019BFE
:10FC7000002B01D10E234CE0019B1B68002B03D10C
:10FC80002649FF2008F0D8FF019B5B68002B04D1B8
:10FC900022494FF4807008F0CFFF019B9B68002B36
:10FCA00004D11E4940F2011008F0C6FF019BDB6839
:10FCB000002B04D119494FF4817008F0BDFF019B5E
:10FCC0001B8A002B04D1154940F2031008F0B4FF41
:10FCD000019B9A68019B5B68D31A8DF80F30019BDA
:10FCE0001B68019A52681A6007E0019B1A68136842
:10FCF000591C11609DF80F201A709DF80F305A1E84
:10FD00008DF80F20002BF0D1019B1B6800221A7187
:10FD10000023184605B05DF804FB00BFE44403006F
:10FD200000B585B00190019B002B04D11F494FF411
:10FD3000927008F081FF0023039300238DF80A30AE
:10FD40000DF10A031846FDF71FFD019B1B681A6899
:10FD5000019B5B689A421FD9019B1B681A68013A94
:10FD60001A601B681B7819460198FFF747FF03903C
:10FD7000019B9A68019B1B681B68D31A8DF80B3096
:10FD8000019B1B681B799DF80B209A4204D9019BAB
:10FD90001B689DF80B201A719DF80A301846FDF774
:10FDA00009FD039B184605B05DF804FBE44403001D
:10FDB00010B584B001900091019B002B04D115492E
:10FDC00040F2471008F038FF009B002B04D1114986
:10FDD0004FF4A47008F030FF009B039300238DF8CC
:10FDE0000B300DF10B031846FDF7CEFC019B1B6891
:10FDF0001C68621C1A6003990198FFF71BFF0346F9
:10FE000023709DF80B301846FDF7D4FC00BF04B0FA
:10FE100010BD00BFE444030000B583B00190019B16
:10FE2000002B03D10C49312008F006FF019B9B6891
:10FE3000002B0CD0019B5B69019A1069019A116833
:10FE4000019A92689847019B00229A6000E000BFE7
:10FE500003B05DF804FB00BF6C4503000EB400B5B1
:10FE600084B00190019B002B03D11849422008F077
:10FE7000E3FE019B5B69002B03D11449432008F08A
:10FE8000DBFE019B1B68002B03D11049442008F0C6
:10FE9000D3FE019B5B68002B03D10C49452008F081
:10FEA000CBFE059B002B0AD00023039306AB0393E4
:10FEB00003AB1A460599019800F0B8F900E000BFBD
:10FEC00004B05DF804EB03B0704700BF6C4503005D
:10FED00000B583B001900B468DF803309DF80330D8
:10FEE0000A2B03D10D210198FFF7F2FF019B1A683D
:10FEF000019B9B68581C0199886013449DF803205E
:10FF00001A70019B9A68019B5B689A4202D3019820
:10FF1000FFF782FF00BF03B05DF804FB00B587B0B8
:10FF2000039002910192009300230593009B03F03C
:10FF30000103002B24D00BE0029B01330293059BAD
:10FF4000013305939DF8133019460398FFF7C0FF5E
:10FF5000029B1B788DF813309DF81330002BEBD1EA
:10FF600006E0019B013B019320210398FFF7B0FFBE
:10FF7000019A059B9A422ED9019B002BF1D12AE0D0
:10FF8000029B002B0BD0029811F048FB059006E075
:10FF9000019B013B019320210398FFF799FF019AF0
:10FFA000059B9A420FD9019B002BF1D10BE0029BDC
:10FFB00001330293059B013305939DF813301946D5
:10FFC0000398FFF785FF029B1B788DF813309DF88F
:10FFD0001330002BEBD100BF07B05DF804FB00002D
:10FFE00000B589B00390029101920093029B0793A0
:10FFF0000123069307E0079A019BB2FBF3F30793F3
:020000022000DC
:10000000069B01330693079A019B9A42F3D2009A0A
:10001000069B9A4201D9009B06930B9B03F00103B8
:10002000002B22D10A9B002B1FD00B9B03F0020355
:10003000002B06D0009B002B03D130238DF8173006
:1000400002E020238DF8173008E00A9B013B0A9359
:100050009DF8173019460398FFF73AFF0A9B002BCB
:1000600003D0069A0A9B9A42EFD301230793009B81
:10007000012B03D9009B013B009309E0029A079BE7
:10008000B2FBF3F30493049A019B9A4200D205E079
:10009000079B019A02FB03F30793E8E7029A079B89
:1000A000B2FBF3F30493049B079A02FB03F3029A57
:1000B000D31A0293154A049B13441B7819460398DC
:1000C000FFF706FF079A019BB2FBF3F30793079B29
:1000D000002BE3D10B9B03F00103002B11D00A9BF3
:1000E000002B0ED006E00A9B013B0A9320210398C7
:1000F000FFF7EEFE0A9B002B03D0069A0A9B9A425A
:10010000F1D300BF09B05DF804FB00BF6C460300EB
:1001100000B589B00590049103920293049B002BD3
:10012000B8BF5B4206930123079307E0039B069A3F
:1001300092FBF3F30693079B01330793039B069A05
:100140009A42F3DA029A079B9A4201D9029B0793DB
:100150000A9B002B0AD0049B002B04DB0B9B03F0B3
:100160000403002B02D00A9B013B0A930B9B03F074
:100170000203002B02D0029B002B16D00B9B03F036
:100180000103002B11D10A9B002B0ED006E00A9B25
:10019000013B0A9320210598FFF79AFE0A9B002B4A
:1001A00003D0079A0A9B9A42F1D3049B002B07DAEB
:1001B000049B5B4204932D210598FFF789FE08E01C
:1001C0000B9B03F00403002B03D02B210598FFF7B2
:1001D0007FFE0B9B03F00203002B19D00B9B03F057
:1001E0000103002B14D1029B002B11D10A9B002B81
:1001F0000ED006E00A9B013B0A9330210598FFF7D9
:1002000067FE0A9B002B03D0079A0A9B9A42F1D300
:1002100004990B9B01930A9B0093029B039A0598F8
:10022000FFF7DEFE00BF09B05DF804FB00B58FB03C
:10023000059004910392059B002B04D1AD4940F237
:10024000522008F0F9FC059B5B69002B04D1A949F9
:100250004FF4157008F0F0FC059B1B68002B04D1CF
:10026000A44940F2552008F0E7FC059B5B68002B91
:1002700004D1A04940F2562008F0DEFC049B002B7C
:1002800000F09381049B1B788DF83730049B013379
:1002900004939DF83730002B00F07E819DF83730B5
:1002A000252B40F06D8100230A9301230C93049BBE
:1002B0001B788DF837309DF83730302B0DD0302B30
:1002C0001BDC2B2B11D02D2B17D10A9B43F00103E4
:1002D0000A93049B0133049312E00A9B43F0020348
:1002E0000A93049B013304930AE00A9B43F004033E
:1002F0000A93049B0133049302E000230C9300BF94
:100300000C9B002BD3D1002309939DF837302A2B67
:100310000CD1039B1B68191D039A11601B68099A75
:1003200013440993049B013304931AE0049B1B7844
:100330008DF837309DF837302F2B12D99DF8373094
:10034000392B0ED8049B01330493099A13469B0062
:1003500013445B001A469DF837301344303B099331
:10036000D3E700230B93049B1B788DF837309DF85F
:1003700037302E2B1DD1049B01330493049B1B7833
:100380008DF837309DF837302F2B12D99DF8373044
:10039000392B0ED8049B013304930B9A13469B0010
:1003A00013445B001A469DF837301344303B0B93DF
:1003B000E4E7049B1B788DF837309DF837306C2BC1
:1003C00003D09DF83730682B07D1049B0133049389
:1003D000049B1B788DF83730EFE79DF83730252BDD
:1003E00000F0C480252BC0F2C680782B00F3C380B8
:1003F000582BC0F2C080583B202B00F2BC8001A2D9
:1004000052F823F0F9040200770502007705020094
:1004100077050200770502007705020077050200E4
:1004200077050200770502007705020077050200D4
:1004300089040200AB040200770502007705020080
:100440007705020077050200AB0402007705020081
:1004500077050200770502007705020077050200A4
:1004600077050200390502007705020077050200D2
:100470001D05020077050200CF0402007705020087
:1004800077050200F9040200039B1B68191D039AFB
:1004900011601B680C930C9B8DF81F309DF81F306A
:1004A00019460598FFF714FD66E0039B1B68191DAC
:1004B000039A11601B680C930A9B0193099B00939C
:1004C0000B9B0A220C990598FFF722FE54E0039B30
:1004D0001B68191D039A11601B680C930C990A9BE9
:1004E0000193099B00930B9B0A220598FFF778FD67
:1004F00042E000BFE8450300039B1B68191D039AF7
:1005000011601B680C930C990A9B0193099B009343
:100510000B9B10220598FFF763FD2DE0039B1B68E2
:10052000191D039A11601B6808930A9B099A089980
:100530000598FFF7F3FC1FE0039B1B68191D039A46
:1005400011601B680C9330210598FFF7C1FC7821DE
:100550000598FFF7BDFC0C99002301930823009335
:10056000082310220598FFF73BFD05E0252105989B
:10057000FFF7AEFC00E000BF049B0133049305E0ED
:100580009DF8373019460598FFF7A2FC049B1B78AD
:10059000002B7FF477AE00E000BF059B1B7B002B98
:1005A00004D00598FFF738FC00E000BF0FB05DF8FD
:1005B00004FB00BF10B586B005900491039202932E
:1005C000059B002B10D1604A604BD31ADB081B043B
:1005D00043F001005E4A5F490E2300930B465E49DB
:1005E00005F0C1FE0E23ABE0039B002B10D1564A51
:1005F000564BD31ADB081B0443F00100574A5549F8
:100600000E2300930B46544905F0ADFE0E2397E0F0
:10061000059B1B68002B10D14B4A4C4BD31ADB08AF
:100620001B0443F001004E4A4A49082300930B463D
:10063000494905F098FE082382E0029B002B10D167
:10064000414A424BD31ADB081B0443F00100454AE0
:100650004049092300930B463F4905F084FE0923D6
:100660006EE0059B5B685A68029BB3FBF2F101FBED
:1006700002F29B1A002B10D0334A344BD31ADB08FA
:100680001B0443F00100384A3249092300930B460A
:10069000314905F068FE092352E0049800F01EF984
:1006A0000346002B10D1284A284BD31ADB081B0421
:1006B00043F001002D4A2749102300930B46264999
:1006C00005F051FE10233BE0039B184600F006F9AD
:1006D0000346002B10D11C4A1C4BD31ADB081B0409
:1006E00043F00100224A1B49102300930B461A498C
:1006F00005F039FE102323E0029A0499059800F0D2
:10070000D3F80346002B10D10F4A104BD31ADB0845
:100710001B0443F00100174A0E49102300930B46B7
:100720000D4905F020FE10230AE0059B1B68DC68DC
:10073000089B0093029B039A04990598A0470346DF
:10074000184606B010BD00BFDC3F0300543F030055
:100750008C46030030480300944603002047030002
:10076000C8460300DC460300284703005447030043
:100770006C4703009047030010B586B005900491C4
:1007800003920293059B002B10D13E4A3E4BD31A95
:10079000DB081B0443F001003C4A3D490E23009353
:1007A0000B463C4905F0DFFD0E2368E0059B1B6806
:1007B000002B10D1334A344BD31ADB081B0443F00F
:1007C0000100354A3249082300930B46314905F0B0
:1007D000CAFD082353E0039B002B10D1294A2A4B62
:1007E000D31ADB081B0443F001002C4A28490923D3
:1007F00000930B46274905F0B6FD09233FE0049915
:10080000059800F078F80346002B10D11D4A1E4BC6
:10081000D31ADB081B0443F00100214A1C491023B2
:1008200000930B461B4905F09EFD102327E0059B16
:100830005B681B68039A02FB03F31A460499059848
:1008400000F032F80346002B10D10E4A0E4BD31A9B
:10085000DB081B0443F00100124A0D4910230093EA
:100860000B460C4905F07FFD102308E0059B1B6833
:100870001C69029B039A04990598A04703461846F1
:1008800006B010BDDC3F0300543F03008C4603005C
:100890004448030094460300C8460300DC460300B6
:1008A000B8470300E047030084B00390029101922F
:1008B000039BDB68029A9A4209D3029A019B134474
:1008C0005A1E039B1B699A4201D8012300E00023B2
:1008D00003F00103DBB2184604B0704782B0019008
:1008E000019B03F00303002B0CBF01230023DBB2A9
:1008F000184602B0704782B001900091019B5B687E
:100900001B685A1E009B1340002B0CBF01230023C1
:10091000DBB2184602B0704729DF704700BF1846A7
:1009200028DF704700BF184600B589B001900091DC
:10093000019B1B689B68002B35D002AB00221A601C
:100940005A609A60DA601A615A61009B0393019BB6
:100950009B680793019B1B79002B02D0012B0DD0C4
:100960001AE001238DF80830019B1B690493019B59
:10097000DB680593019B5B6906930DE002238DF80C
:100980000830019BDB684FF4805202FB03F30493B1
:10099000019B5B69069300BF019B1B689B6802AAD1
:1009A0001046984700E000BF09B05DF804FB00B5B1
:1009B00087B00190019B5A69019B9B69D31AB3F5DB
:1009C000805F28BF4FF4805305930422059BB3FB3F
:1009D000F2F3012B38BF01230593019B1A69019B98
:1009E0009B6913440493019BDB681A46019B9B6936
:1009F00013440393059A03990498FFF78DFF034668
:100A0000184607B05DF804FB00B583B00190019B68
:100A1000DA68019B1B6913441846FFF781FF034600
:100A2000184603B05DF804FB08B5034B03491846AC
:100A3000FEF72CFF00BF08BD84280020AC28002052
:100A400008B5084B08491846FEF707FF0346074A52
:100A50001360064B1B68002B14BF01230023DBB27D
:100A6000184608BD84280020AC280020A8280020B3
:100A700000B583B02A4B1B7A002B0BD1FFF7E0FFA8
:100A8000034683F00103DBB2002B03D0244B00228A
:100A90005A6042E0224B02221A72224B1B681B79D9
:100AA000002B02D0012B07D00DE01E4B1B6818460F
:100AB000FFF77DFF019009E01A4B1B681846FFF70E
:100AC000A3FF019002E00323019300BF019B002BD1
:100AD00003D0019B112B0CD00FE0114B1B7C83F03A
:100AE0000103DBB2002B17D00021022000F06EF8CA
:100AF00012E00B4B01221A720FE00A4B1B68032114
:100B00001846FFF711FF064B00221A72044B002211
:100B10005A60FFF789FF00E000BF03B05DF804FBF7
:100B200094280020A828002084B001901B4B0022AC
:100B3000DA60019B1B79002B02D0012B19D028E031
:100B4000019B5A69019B9B69D31AB3F5805F28BF4B
:100B50004FF480530393019B9A69039B1A44019BB2
:100B60009A61019B9A69019B5B699A420ED10123AC
:100B700010E0019B1B695A1C019B1A61019B1A69B9
:100B8000019B5B699A4203D1012303E000BF00E0AF
:100B900000BF0023184604B0704700BF942800200F
:100BA00082B00190084BDB680133074AD360064BE3
:100BB000DB68082B04D9044B0022DA60012300E033
:100BC0000023184602B070479428002000B585B075
:100BD00001900091019B022B02D0019B032B48D175
:100BE000274B1B7A022B05D0022B35DC002B42D081
:100BF000012B31E000238DF80F30019B022B03D035
:100C0000019B032B09D011E01E4B1B681846FFF710
:100C10008BFF03468DF80F3008E01A4B1B6818460F
:100C2000FFF7BEFF03468DF80F3000BF9DF80F3071
:100C3000002B10D0124B00221A72124B1A68019B23
:100C4000022B01D1002300E00D2319461046FFF7C7
:100C50006BFEFFF7E9FE00BF094B5B7C83F00103ED
:100C6000DBB2002B02D0FFF703FF05E00FF0FCFE24
:100C700002E000BF00E000BF05B05DF804FB00BF6C
:100C800094280020A828002082B0034600918DF807
:100C90000730064B01225A74044B1B7A002B0CBF01
:100CA00001230023DBB2184602B0704794280020CD
:100CB00000B583B0034600918DF807309DF80730EA
:100CC000012B03D09DF80730032B0DD1084B0022D8
:100CD0005A749DF80730012B0CBF01230023DAB2B0
:100CE000034B1A74FFF7C4FE00BF03B05DF804FBAA
:100CF0009428002000B583B001900198FEF7B4FF5E
:100D00000346184603B05DF804FB00B58BB00190B4
:100D10000091019B1B8A043B0793009A079B134495
:100D2000DA1C079BB2FBF3F38DF81B300198FEF73A
:100D3000F7FF0590059B002B01D1002338E0059BB0
:100D400000221A71059B01225A71079B9AB2059BDA
:100D5000DA80059B09939DF81B30013B0493099BA6
:100D6000019A1A60002308931DE00198FEF7D8FF4E
:100D70000390039B002B0ED0059B5B790133DAB205
:100D8000059B5A71099B039A1A60039B019A1A608A
:100D9000039B099304E0059800F00EF8002307E098
:100DA000089B01330893089A049B9A42DDD3059B64
:100DB00018460BB05DF804FB00B58BB00190019BA9
:100DC0000793079B5B798DF81B30019B08939DF877
:100DD0001B30013B05930023099305E0089B1B682A
:100DE0000893099B01330993099A059B9A42F5D30D
:100DF000089B1B680493019B0893002309930BE055
:100E0000089B1B68039308990498FEF7D1FF039B86
:100E10000893099B013309939DF81B30099A9A4264
:100E2000EED300BF00BF0BB05DF804FB00B585B08A
:100E30000190019B0393039B043301211846FEF7A5
:100E400094FE00BF05B05DF804FB00B587B00190CB
:100E5000019B0593059B043301211846FEF79DFE77
:100E60000346039303AB0493049B1B78002B02D12E
:100E70000198FFF7A1FF00BF07B05DF804FB000079
:100E800000B591B00390029101920093039B002B57
:100E900003D14349B62007F0CFFE039B0993039B80
:100EA0000F93099BDB881A46099B5B7902FB03F3CE
:100EB000043B0893009A089B9A4203D33849C42004
:100EC00007F0BAFE099BDB880793009B1A1D079B5E
:100ED000B2FBF3F30E93009B0433079AB3FBF2F2D9
:100EE000079901FB02F29B1A0D93019B1A68009B64
:100EF0001344089A9A4203D2089A009BD31A01E03D
:100F0000019B1B680C93019B0C9A1A6005E00F9BD8
:100F10001B680F930E9B013B0E930E9B002BF6D18B
:100F200000230B93079A0D9BD31A0A930A9A0C9BE2
:100F3000934228BF13460A932AE0029A0B9B13445C
:100F400006930F9A0D9B1344043305939DF8483084
:100F5000002B05D00A9A0599069810F003FB04E0CF
:100F60000A9A0699059810F0FDFA00230D930F9B3D
:100F70001B680F930C9A0A9BD31A0C930B9A0A9B2B
:100F800013440B93079A0C9B934228BF13460A9372
:100F90000C9B002BD1D100BF00BF11B05DF804FB4A
:100FA0005848030000B589B005900491039202935C
:100FB000039B079307AA00230093029B04990598BB
:100FC000FFF75EFF079B039A9A4203D00349F6207E
:100FD00007F032FE00BF09B05DF804FB584803007B
:100FE00000B589B00590049103920293039B079387
:100FF00007AA01230093029B04990598FFF740FF7D
:10100000079B039A9A4204D004494FF4807007F07A
:1010100013FE00BF09B05DF804FB00BF5848030091
:1010200082B003468DF807309DF90730002B0DDBA9
:101030009DF8073003F01F0206499DF907305B0950
:10104000012000FA02F2603341F8232000BF02B011
:10105000704700BF00E100E000B583B00190019B44
:10106000002B03D10649722007F0E6FD019B002208
:101070001A60BFF35F8F00BF00BF03B05DF804FBD1
:101080003C49030041DF704700BF184600B585B0FA
:1010900000238DF807300DF107031846FCF774FBA9
:1010A000F1EE103A0393039B23F09F030293029BFC
:1010B000E1EE103A00BFBFF35F8F00BF2620FFF7BD
:1010C000AFFF9DF807301846FCF774FB039B03F055
:1010D0000703002B03D004497D2007F0ADFD00BFBE
:1010E00005B05DF804FB00BF8849030008B5064B56
:1010F00000221A700548FFF7AFFF0549054800F0C8
:1011000061FA0023184608BDB4280020B02800204A
:10111000144A0300B828002000B583B0FFF7B6FFDB
:101120000FF0BEFC0346002B0ED0FFF7ABFF019083
:10113000019B002B0BD0019B022B08D006494FF4DA
:10114000B07007F079FD02E020BF40BF20BF00BFB4
:1011500003B05DF804FB00BF8849030082B0019032
:10116000019B9B68024A12781344184602B07047EC
:10117000A44A030000B583B001900091019B002BAD
:1011800003D10849832007F057FD019B9B68009A13
:101190009A4202D2009B013300E00023184603B0BC
:1011A0005DF804FB204A030000B585B00190019B67
:1011B0001B681B680393019B1B685B680293029A80
:1011C000039B9A4203D3029A039BD31A07E0019828
:1011D000FFF7C4FF0246039BD21A029B1344184632
:1011E00005B05DF804FB000000B585B00190019BDF
:1011F000002B03D10D49982007F01EFD019B1B68B1
:101200001B680393019B1B685B680293029901981A
:10121000FFF7B0FF0246039B93420CBF012300235C
:10122000DBB2184605B05DF804FB00BF204A03009E
:1012300010B588B00190009100230793019B002B0B
:1012400003D15649A32007F0F7FC009B002B03D1E4
:101250005249A42007F0F0FC00238DF80F300DF167
:101260000F031846FCF790FA0198FFF7BDFF0346FD
:101270008DF81B309DF81B3083F00103DBB2002B8F
:1012800003D1019B1B7C002B7BD1019B1B685B68FE
:101290000593019B1B685A68019B1C6811460198C5
:1012A000FFF768FF034663609DF81B30002B0AD0F0
:1012B000019B1B681A68019B1C6811460198FFF787
:1012C00059FF03462360019BDB68013B072B38D89D
:1012D00001A252F823F000BFF91202000913020024
:1012E000431302001B1302004313020043130200C6
:1012F000431302002D130200019B5A68059B1344FF
:10130000009A12781A702DE0019B5A68059B5B00C9
:101310001344009A12881A8024E0019B5A68059BA6
:101320009B001344009A12681A601BE0019B5A68E4
:10133000059BDB00D118009BD3E90023C1E9002302
:1013400010E0019B5B681946019BDB68059A02FB74
:1013500003F30B441846019BDB681A46009910F012
:1013600001F900BF0198FFF71FFF0490019B1B6864
:101370009B68049A9A4207D9019B1B68049A9A6059
:1013800002E00423079300E000BF9DF80F301846E9
:10139000FCF710FA079B184608B010BD204A03005E
:1013A00000B585B001900B468DF80330019B1B689A
:1013B0001B680393019B1B685B6802939DF80330D5
:1013C000002B0ED0029A039B9A4206D30198FFF796
:1013D000C5FE0246029BD31A11E0039A029BD31A60
:1013E0000DE0029A039B9A4203D3029A039BD31AFD
:1013F00005E00198FFF7B2FE0246039BD31A184698
:1014000005B05DF804FB00B58BB00390029101922A
:10141000039B1B681B68099300210398FFF7C0FF1B
:101420000890039B5B681946039BDB68099A02FBE3
:1014300003F30B440793019A089B9A4219D8039B24
:10144000DB68019A02FB03F31A460799029810F031
:1014500089F8099A019B1A44039B9B689A4203D816
:10146000099A019B134400E00023039A1268136059
:1014700020E0039BDA68089B02FB03F30693069ABD
:101480000799029810F06EF8019A089BD31A0593F9
:10149000029A069B13441846039B5968039BDB681A
:1014A000059A02FB03F31A4610F05CF8039B1B68D5
:1014B000059A1A6000BF0BB05DF804FB00B587B059
:1014C00003900291019200230593039B002B04D10A
:1014D00019494FF4EC7007F0AFFB029B002B04D1CD
:1014E000154940F2D91007F0A7FB019B002B01D151
:1014F00000231CE000238DF813300DF11303184670
:10150000FCF742F90398FFF74FFE0246019B934216
:1015100005D8019A02990398FFF775FF01E00523AA
:1015200005939DF813301846FCF744F9059B1846BF
:1015300007B05DF804FB00BF204A030000B585B08A
:101540000190019B002B04D10E494FF4047007F069
:1015500073FB00238DF80F300DF10F031846FCF7D5
:1015600013F9019B1B680C220021184610F023F888
:101570009DF80F301846FCF71DF900BF05B05DF867
:1015800004FB00BF204A030082B00190019B9B68CE
:1015900000229A60019B9B6800221A61019B9B6854
:1015A00000225A61019B9B680022DA60019B9B68C4
:1015B00000225A60019B9B6800221A6000BF02B0A3
:1015C0007047000000B583B001900091019B002B93
:1015D00003D11049502007F02FFB009B002B03D1B3
:1015E0000C49512007F028FB019B009A1A60019BCF
:1015F0001B681A68019B5A60019B5A68019B1B6813
:101600005B689A4202D1019B00225A6000BF03B07E
:101610005DF804FBA84A030000B583B00190019B6C
:10162000002B03D11449632007F006FB019B1B68C4
:10163000002B03D11049642007F0FEFA019B5B6880
:10164000002B14D0019B5B681A46019B1B689B68AA
:1016500013441A46019B5A60019B5A68019B1B6800
:101660005B689A4204D1019B00225A6000E000BFEF
:1016700003B05DF804FB00BFA84A030000B585B0C5
:1016800001900091019B002B03D118493A2007F0EB
:10169000D3FA009B002B03D114493B2007F0CCFA6E
:1016A000019B5B6803930FE0019B9B68039A1268A0
:1016B000009910469847034683F00103DBB2002BE4
:1016C00007D1039B1B680393039B1B68002BEBD183
:1016D00000E000BF039B1A68009B1A60039B009AFE
:1016E0001A6000BF05B05DF804FB00BF544B030057
:1016F00000B585B00190019B002B03D10C4951200E
:1017000007F09AFA019B5B681B680393019B5B6877
:101710001B68002B06D0019B5B681A68019B5B6805
:1017200012681A60039B184605B05DF804FB00BF01
:10173000544B030000B583B00190019B002B03D1F3
:1017400005495D2007F078FA019B5B681B68184625
:1017500003B05DF804FB00BF544B030000B585B037
:1017600001900091019B002B03D11649692007F0DD
:1017700063FA009B002B03D112496A2007F05CFA40
:1017800000238DF80B30019B5B6803930FE0039BF4
:101790001B68009A9A4207D1009B1A68039B1A6043
:1017A00001238DF80B3006E0039B1B680393039B1A
:1017B0001B68002BEBD19DF80B30184605B05DF887
:1017C00004FB00BF544B030000B585B001900198A5
:1017D00000F00EF80390039B002B01D0039B00E068
:1017E000024B184605B05DF804FB00BFE04B030058
:1017F00086B00190164B0593164B04931FE0049A94
:10180000059BD31ADB10DA0F13445B10DB00059A3B
:1018100013440393039B1B680293029A019B9A4211
:1018200002D9039B04930AE0029A019B9A4203D2D5
:10183000039B0833059302E0039B5B6804E0059A71
:10184000049B9A42DBD30023184606B0704700BFC2
:10185000E04F03000851030082B003468DF80730C3
:101860009DF90730002B13DB9DF8073003F01F02B2
:1018700009499DF907305B09012000FA02F2203383
:1018800041F82320BFF34F8F00BFBFF36F8F00BF1E
:1018900000BF02B0704700BF00E100E0044BD3F886
:1018A0000034002B14BF01230023DBB2184670471D
:1018B0000000014008B50FF0F3F8034683F0010380
:1018C000DBB2002B03D109497B2007F0B5F9FFF704
:1018D000E5FF034683F00103DBB2002B04D000F0E8
:1018E000BBFC034B00229A7000BF08BD10510300DF
:1018F000C028002000B583B000230193184B1B784B
:10190000002B02D0852301931CE0154B00229A6026
:10191000134B00225A60124B00221A61104B002216
:10192000DA60104800F062FC01900FF0B9F803464D
:1019300083F00103DBB2002B01D000F079FC084BEF
:1019400001221A70FFF7AAFF0346002B02D0044BB6
:1019500001229A70019B184603B05DF804FB00BF9A
:10196000C02800203D1A020084B00190019B1B6832
:101970000393039B002B03D0039B1A68019B1A60FF
:10198000039B184604B0704700B583B0164B1B7814
:10199000002B04D1154940F2171007F04DF9124BF6
:1019A000DB68002B04D111494FF48C7007F044F927
:1019B00000238DF807300DF107031846FBF7E4FE0E
:1019C000094BDB68013B084AD360074BDB68002BFF
:1019D00001D1FFF76FFF9DF807301846FBF7EAFECD
:1019E00000BF03B05DF804FBC028002010510300C5
:1019F00000B585B003468DF807309DF80730002B01
:101A000002D10C4B039301E00B4B03930398FFF7B8
:101A1000ABFF0290029B002B06D0029B5B689DF8F7
:101A2000072010469847F1E700BF00BF05B05DF8FA
:101A300004FB00BFC8280020D028002000B583B0D8
:101A400003468DF807309DF80730002B05D10A4B6F
:101A500001225A700020FFF7CBFF9DF80730012BC1
:101A600005D1054B01229A700120FFF7C1FF00BF8D
:101A700003B05DF804FB00BFC028002000B583B0B0
:101A800001900091019B002B05D1054B01225A705A
:101A90000020FFF7ADFF00BF03B05DF804FB00BFFF
:101AA000C028002000B585B0034600918DF80730AE
:101AB0009DF80730032B29D0032B35DC002B02D0F7
:101AC000012B04D030E00020FFF7C6FE2DE00023FC
