:020000022000DC
:1060000000000120756302005D6302005F6302000F
:106010006163020063630200656302000000000028
:1060200000000000000000000000000067630200A4
:1060300069630200000000006B6302006D630200F0
:10604000F18502006F630200458A02006F6302005F
:106050006F6302006F630200F98802006F63020041
:106060006F6302006F6302006F6302006F630200E0
:106070006F6302006F6302006F6302006F630200D0
:106080006F630200057702006F6302006F63020016
:106090006F6302006F630200A5A602006F63020037
:1060A0006F6302006F6302006F6302006F630200A0
:1060B0006F6302006F630200000000000000000038
:1060C0006F6302006F6302006F6302006F63020080
:1060D0006F6302006F6302006F6302000000000044
:1060E00000000000000000000000000000000000B0
:1060F00000000000000000000000000000000000A0
:10610000000000000000000000000000000000008F
:10611000000000000000000000000000000000007F
:10612000000000000000000000000000000000006F
:10613000000000000000000000000000000000005F
:10614000000000000000000000000000000000004F
:10615000000000000000000000000000000000003F
:10616000000000000000000000000000000000002F
:10617000000000000000000000000000000000001F
:10618000000000000000000000000000000000000F
:1061900000000000000000000000000000000000FF
:1061A00000000000000000000000000000000000EF
:1061B00000000000000000000000000000000000DF
:1061C00000000000000000000000000000000000CF
:1061D00000000000000000000000000000000000BF
:1061E00000000000000000000000000000000000AF
:1061F000000000000000000000000000000000009F
:10620000354936480A1A02D0072291438D4634494F
:1062100034480A1A06D00722914381F309880222E2
:1062200082F3148830483149314A00F044F831484B
:106230003149324A00F03FF831483249324A00F0E1
:106240003AF832483249334A00F035F83248334997
:10625000334A00F030F833483349344A00F02BF821
:1062600033483449344A00F026F83448344900228F
:1062700000F02CF833483449002200F027F8334866
:106280003349091A082902DB002202604160314AC1
:1062900090471F481F49884205D00268043003B464
:1062A000904703BCF7E700208646EC46002000211B
:1062B000294A9047FEE7884207D0521A05D0037852
:1062C00001300B700131013AF9D17047884202D098
:1062D00002700130FAE770470000012000E0002062
:1062E000000001200000012068BB0200F022002015
:1062F00048230020D0630200D0630200FEAC0200FD
:1063000068BB0200F0220020F0220020ECAD020069
:10631000ECAD0200ECAD0200ECAD0200ECAD020011
:10632000ECAD0200ECAD0200ECAD020066BB020079
:10633000C0BB02004823002048230020482300203F
:10634000802C0020802C0020802C0020802C00201D
:10635000804C00209D63020009960200FEE7FEE7E4
:10636000FEE7FEE7FEE7FEE7FEE7FEE7FEE7FEE705
:1063700000F002B8FFF7FCBF0F484FF00701884359
:1063800085460E4880470E48016841F4700101605F
:10639000BFF34F8FBFF36F8FFFF732BF09480A4932
:1063A0000A4A884207D0521A05D0037801300B7090
:1063B0000131013AF9D17047000001204D800200FF
:1063C00088ED00E0ECAD0200F0220020F022002079
:1063D000F0B595B01D46164608460C4601F040FD46
:1063E0001A9B0D93CDE9086500252B46082205A9C7
:1063F00020460A958DF82C500C9501F04DFD079B19
:106400000293069B03939DF814308DF8115003F00E
:106410000302012A1DD1BDF81420059DC3F3C20358
:10642000C2F383168DF81030B20008230EA920465F
:1064300001F032FDC5F3952508AB0093324602AB5F
:106440000EA9284600F0AAFB204601F00DFD15B06C
:10645000F0BD022AF8D1BDF81650C3F3C203C5F34C
:1064600089158DF810300827082D2E4628BF0826DC
:106470003B4632460EA9204601F00EFDAD1B08AB8F
:1064800002AA31460EA8374400F0ECFB002DEBD1F8
:10649000DAE70000014B01221A70704789230020BF
:1064A0007047000070B50E4D06460FCD88B06C46A3
:1064B0000FC495E80F00002E84E80F00094A0A482F
:1064C0004FF0060308BF00226946009302F018F857
:1064D00008B100F0C1FD054B1E7008B070BD00BFD3
:1064E000ECAD020095640200F02200204823002059
:1064F00007B5044B0093044A4023FFF769FF03B03C
:106500005DF804FB0D6502004923002038B50D48F5
:106510000D4C0E4D002323700378EB5CD2B263B1B7
:10652000043002F01DFF08B100F096FD084B1A7808
:1065300012B12378002BFBD038BD0C3002F0BEFC2A
:10654000F1E700BFF022002089230020282A002044
:106550004823002008B50848084A0378D35C3BB1BB
:10656000043002F061FEBDE808400020FFF79ABF4A
:106570000C3002F02DFCF6E7F0220020282A002043
:106580000120FFF78FBF000008B5FFF7F9FF0448AF
:10659000042100F06DFA034B01225A7108BD00BFBF
:1065A000DCAD020004230020037813F0040216D0AF
:1065B00003F00303012B03D0022B09D00120704705
:1065C0000A6800880232C0F3831002440A60F5E7CB
:1065D0000B684288023303EB92130B60EEE7104620
:1065E000704700002DE9F04FDFF81CA187B00F467F
:1065F00000230446861C0DF1070015468DF8073070
:1066000000F012FFDAF804203A60DAF8083003F5F7
:1066100080739B1A0AF21C470AF583690AF2144830
:10662000B3421AD30020002D69D004F00F039B0160
:1066300043F0050363F30F00DAF80430DAB20332F3
:1066400033444AF822009DF80700CAF8043000F0ED
:106650000FFF012007B0BDE8F08F0121384601F09F
:106660002EF9484601F043F9404601F040F9DAF8C6
:1066700008000290C0B203300AEB800002A9FFF7C5
:1066800093FF029B30BBDAB20AEB8202D16803911E
:106690009A1C0133DBB20AEB83030292D3F80CB0ED
:1066A00001F00303012B22D0022B15D08346404674
:1066B00001F020F910B1029BCAF80830594638465B
:1066C00001F0FDF8DAF80830DAF8042003F58073F9
:1066D0009B1AA5E7D8B2CEE7BDF80E30C3F38913F5
:1066E00003334FEA1B4B02EB93030293DFE7BDF842
:1066F0000C30C3F383134FEA1B4B1344F5E7A40597
:1067000044F0060098E700BF5C240020064B0748D1
:1067100010B500221A7001F05CFB044610B9044861
:1067200001F004FC204610BD5C24002050AD0200A6
:1067300040AE020030B50A4C71B10A4A0A49121B38
:10674000D20800239A4201D1002030BD31F82350F5
:10675000854202D00133F5E7034654F83300F4E7ED
:1067600064AD0200DCAD0200F0220020094B0139CB
:1067700003EBC000032909D8DFE801F00A02040690
:1067800004207047007970474079704700207047B7
:106790000220704764AD0200034BD3E90130C31AF5
:1067A00058425841704700BF5C2400202DE9F04159
:1067B00086B0FFF7F1FF0546002840F0ED80774CEA
:1067C000C4F81804BFF34F8FA3680293DBB20333FE
:1067D00004EB830002A9FFF7E7FE029B18B1D4F88F
:1067E0001824002A5AD0DAB2991C013304EB820231
:1067F000DBB204EB8303D268DB68049302F003038B
:10680000022B0392029154D1BDF80E306448C3F3B9
:106810008917502F3E4628BF502606F1080166F31F
:106820008F13C1F30901ADF80E3001F0EAFA054605
:10683000002800F09C8001F013FB0023082203A92C
:10684000284601F01FFB0299CB43DBB20133C9B2EA
:106850000331B6EB830F4FEA830204EB810125D9A4
:106860005FFA82F80823A6EB0806284601F00AFB27
:10687000F6B208F108034B4903F0FC033246284600
:1068800001F000FB029B033703EB97070297D4F854
:106890001834002B43D1D4F8106453E062689A4254
:1068A00094D8A260284606B0BDE8F081082332469D
:1068B000E5E7012B5BD1BDF80C303948C3F38311F8
:1068C000062928BF062161F38913023101F00F0167
:1068D0008900ADF80C3001F094FA0546002846D046
:1068E00001F0BEFA0023082203A9284601F0CAFAE3
:1068F0000026BDF80C20C2F38312B300964203F1C8
:106900000803C4D202994A1CC9B20331029204EBB3
:1069100081010422284601F0B5FA0136E9E728464C
:1069200001F0A2FAFFF738FF80F00100C5B2B9E725
:10693000F3685B7923B1336829461B683046984772
:10694000F3681E68002EF3D1284601F08DFA0DF190
:1069500007008DF8076000F067FDD4F818340BB914
:10696000029BA3609DF8070000F082FDDAE7D4F8EF
:10697000104454B90C4B0D480D49C01AC00800040E
:1069800040F0020000F05CF8CCE7236820469B68EA
:106990009847E3681C68ECE7002583E75C24002047
:1069A00050AD02006824002064AD02008CAD0200EE
:1069B00029AE02002DE9F34704460E46924601A98E
:1069C000012218469946FFF70DFE1B4F10B3019D9B
:1069D0004FF00008AA1CC84508EB020123D1174854
:1069E000002100F03DFF80F31000000440EA144055
:1069F000E4006B1C04F03804DBB2EDB244F0010497
:106A000007EB8303033544EA881444EA8624D860FC
:106A100047F825403B781BB1FFF7C8FE0028FBD1A3
:106A200002B0BDE8F087C9B207EB81015AF82830FF
:106A3000CB6008F10108CEE75C2400207828002014
:106A400000231A46FFF7B6BF07B50123019201AA3A
:106A5000FFF7B0FF03B05DF804FB07B5CDE90023F5
:106A600002236A46FFF7A6FF03B05DF804FB0000AF
:106A700030B50F4CD4F8102403460020114631B92C
:106A8000D96808714AB9C4F810340A6030BDC968C1
:106A90000D79854206D00968F1E7D26814680C6068
:106AA0001360F3E701300A28E8D14FF0FF30EDE73B
:106AB0005C24002038B5084B0125D3F810441D7024
:106AC00004B938BDE3685D71236820465B68984768
:106AD000E3681C68F4E700BF5C24002030B5C3887D
:106AE00085B004460D4633B1144A00921449154A44
:106AF000284600F062FF217A05291DD0637A4BB148
:106B0000A088FFF733FE104B104953F82020284689
:106B100000F053FF227A0E4BA08853F822200392F4
:106B20000021FFF707FE039A0A490346284605B0ED
:106B3000BDE8304000F041BF05B030BD6CAE020092
:106B400054AE02004CAE0200D8AE020071AE02009C
:106B5000FCAE020074AE020007B503460846197A7F
:106B6000052911D05B7A2BB1094A0A49019000F03E
:106B700024FF01980849019000F01FFF019803B01D
:106B80005DF804EB00F00EBF002AF8D0F2E700BF7A
:106B90006CAE020071AE020069AE02002DE9F04356
:106BA00085B01F460C9D002395F80C902B7306466C
:106BB0000C46904629463846FFF790FFB8F1060F7D
:106BC00009D8DFE808F00412181F283340003146C6
:106BD000284600F0F2FE002229463846FFF7BCFFA7
:106BE00085F80C9005B0BDE8F08322683146284650
:106BF00000F0E3FEEFE7D4E900233146284600F039
:106C0000DCFEE8E7A36800933146D4E90023284678
:106C100000F0D3FEDFE7E3680193A36800933146F9
:106C2000D4E90023284600F0C8FED4E72369029384
:106C3000E3680193A36800933146D4E90023284612
:106C400000F0BBFEC7E76369039323690293E3681F
:106C50000193A36800933146D4E90023284600F04D
:106C6000ACFEB8E708292DE9F74F80460E461746D7
:106C70001C463CD8002593F80C901D73194610460D
:106C8000FFF72CFFDFF888A0DFF888B0AE4231D9DB
:106C900018F805205946204600F08FFE0135082DD2
:106CA000F4D11949194DDFF870A0204600F085FE97
:106CB0004FF0000B5E4522D918F80B207E2A05D82C
:106CC0001046019203F08AFF019A00B92E22514624
:106CD000204600F072FE0BF1010BBBF1080FE9D169
:106CE000012221463846FFF737FF84F80C9003B0A5
:106CF000BDE8F08F5146204600F05FFECEE7294602
:106D0000204600F05AFEE6E788AE020086AE02009A
:106D100084AE02007EAE02008AAE0200C30710B548
:106D200007D4F023054A4008145C2340194311544A
:106D300010BD0901C9B20F23F4E700BF48290020A4
:106D400030B5094B1C78094B196800239C4202DCC2
:106D50000022104630BD11F83350854201EBC302CA
:106D6000F7D00133F2E700BF142900205829002092
:106D700013B504460191FFF7E3FF38B143682BB127
:106D80000199204602B0BDE81040184702B010BD7E
:106D9000034B044819680022490800F058BA00BFA4
:106DA000182900202029002010B5C0B2FFF7C8FF25
:106DB0000446007801F096FD63785A1E5342534111
:106DC000834208D1044BD3E90023134303D1BDE828
:106DD0001040FFF7DDBF10BD4029002037B5430844
:106DE000374AD35CC2074CBF1B0903F00F030446AC
:106DF0000D46042B25D8DFE803F003262F3C400086
:106E0000F9B10121FFF78AFF00230DF107008DF88A
:106E1000073000F009FB0120A4F12003C4F1200198
:106E2000284A20FA01F100FA03F30B43A040D2E90B
:106E3000004120430B43C2E900039DF8070000F026
:106E400017FB03B030BD002918BF0221204603B054
:106E5000BDE83040FFF762BF49B10321FFF75EFF95
:106E60000121204603B0BDE83040FFF781BF01217A
:106E7000ECE70029E5D10421E8E709B10321E5E7C2
:106E8000FFF74CFF29462046FFF772FF0DF1070080
:106E90008DF8075000F0C8FA0120A4F12003C4F1D6
:106EA0002001084A20FA01F100FA03F30B43A04045
:106EB000D2E9004124EA000021EA0303BBE700BF56
:106EC00048290020402900202DE9F041124E134F9F
:106ED00000243378A34208DC114BD3E90023134389
:106EE00018D0BDE8F041FFF753BF3D6805EBC4087B
:106EF00015F8340001F0F6FC98F801305A1E5342A0
:106F00005341181A4142414115F83400FFF766FF1A
:106F10000134DEE7BDE8F081142900205829002063
:106F200040290020092AF7B505460C4616463ED9E9
:106F300001F0EEFBE8B11F4B1F481D601F4B204FB7
:106F40001C70204B002110221E6003F075FE1E4BAA
:106F500000200021C3E90001013CE4B20326FF2C1C
:106F60000DD11A4A1A48002103B0BDE8F04000F0E4
:106F700063B901F08FFB0028DDD003B0F0BD9DF8B0
:106F8000063015F834008DF8046005EBC40223F0D8
:106F900007038DF8063001A993788DF805303A463D
:106FA00001F0C0FB013CE4B20028D8D0E5E707209F
:106FB000E3E700BF582900204829002014290020B9
:106FC000A96D02001829002040290020C96E020086
:106FD0001CAF020070B5084D084E00242B789C426F
:106FE00001D3002070BD3368012113F8340001F093
:106FF00011FC0134F2E700BF1429002058290020B9
:1070000073B5114D114E00242B789C4215D30023EB
:107010000DF107008DF8073000F006FA0C4B002147
:107020000020C3E900019DF8070000F021FA09489B
:1070300002B0BDE8704000F022B9336813F83400A4
:1070400001F02EFC0134DFE714290020582900202C
:1070500040290020202900201FB50021039001AA0B
:1070600044F20100CDE9011100F004F805B05DF82B
:1070700004FB000038B572B6FFF71CFDFFF796FB66
:107080000028FBD1104B114C114D1249E41AE408B1
:10709000240444F00100FFF7D3FCD5F8F030DB07FF
:1070A00000D500BE0C4944F00200FFF7C9FCBFF355
:1070B0004F8FEA68094B02F4E0621343EB60BFF3C1
:1070C0004F8F00BFFDE700BF64AD02008CAD020032
:1070D00000ED00E020AF02002CAF02000400FA0532
:1070E00010B5D0E90243D1E90202A04272EB0303DA
:1070F0002CBF0120002010BD08B50A4800F0EBFAB3
:10710000094AD2E90031C018084BD3E9002341F104
:107110000001904271EB030303D210F1807041F142
:10712000000108BD0C23002060290020D829002080
:1071300037B505460C460A4801A900F000FB60B1CE
:107140000570446001A9064800F023FB18B105480A
:1071500000F0C6FA002003B030BD0420FBE700BFFA
:10716000C42900200C23002038B5184B1B78044696
:1071700013B90025284638BD0028FAD0037F03F054
:10718000FF05002BF5D0FFF7B7FFD4E902239042AB
:1071900071EB030314D3236903B92377D4E90530D2
:1071A000984721690029E4D0237F03F0FF05002BD5
:1071B000DFD0D4E902325B1842F10002C4E90232A6
:1071C0000348214600F0D1FED4E700BF6829002023
:1071D00048AF020013B5114B1149186801900823FC
:1071E0001048582200F098FA044698B90E4A0F4801
:1071F00001A900F061F9044660B90C48012100F0D2
:107200004DFA01230A4A0948194600F0AFF9094B23
:1072100001221A70204602B010BD00BF44AF020028
:107220006C290020C4290020997202000C23002040
:10723000FFFF7F00682900203AB103685A614A1EA7
:10724000514251411961002070470720704738B5FD
:10725000037F04460D4683B98261FFF74DFF236922
:10726000281841F10001C4E9020103B1256121465A
:107270000020BDE83840FFF75BBF002038BD002389
:10728000014603770120FFF753BF0000014800F0DB
:1072900022BA00BF0C2300202DE9F347064600F078
:1072A00005FA40B1584AD2E9003113F1807341F137
:1072B0000001C2E900310021304600F006FA38B181
:1072C000524C236823B12068FFF74EFF0023236050
:1072D0000121304600F0F9F920B1FFF70DFF4C4BCA
:1072E000C3E900014B48494D4B4C4C4F01A900F0FC
:1072F00060FA002842D1DFF82081444CDFF8249165
:10730000404600F048FE2368002872D07BB1236815
:10731000D0E90252D3E902138D4272EB03032AD261
:1073200023681B7F1BB12168404600F01EFE4046CB
:1073300000F02BFED0E9027A0546FFF7DDFE381A91
:107340006AEB010A01287AF1000345DBB0F5350F3D
:1073500040D3FFF79BFF324A02444FF496030021CB
:10736000484600F023F900283ED1236813B930467F
:1073700000F0F4F8256002B0BDE8F0870378012B37
:107380001DD0022B09D14FF00008204600F0FDFD72
:10739000002836D080F81C80F7E73BB941680B7FA6
:1073A00023B901230B77204600F0DFFD01A919481E
:1073B00000F02AFA01A9174800F0FBF999E74168A3
:1073C0002B68994202D100232B60EFE7204600F0A2
:1073D000E5FDEBE7AA68C0E70021484600F06BF93D
:1073E0002846FFF7C1FE01E00D28F9D000232360F5
:1073F00086E7002BBFD1304602B0BDE8F04700F071
:10740000B1B801233B70D1E760290020E0290020BA
:10741000D8290020C429002048AF02006829002094
:10742000FFFFB4000C23002070B5EFF3108672B696
:107430000C4A946801239CB993600B4B0B4DD3F815
:10744000801029401160C3F88050D3F88410516037
:107450004FF0FF32C3F88420047006B962B670BDE5
:107460000370FAE7E429002000E100E0FC06FFBD1C
:10747000084B9A6810B55AB150B9EFF3108172B643
:10748000054A1C6814605C685460986001B962B673
:1074900010BD00BFE429002000E100E0435882B0A5
:1074A0003BB10023435043580193019B012002B09C
:1074B00070471846FBE70000F8B5204B4479204E92
:1074C00043F824201F4A204B06EBC4049B1A227960
:1074D000DB081B0432B143F002001C49FFF7B0FA8D
:1074E0000820F8BD02680C88C2F8084590F90450DD
:1074F0008A7804795201002DD2B219DB14494F1950
:1075000087F8002301226D0904F01F0402FA04F435
:1075100041F82540427906EBC201012446F83200C9
:107520000C7143F003000B49FFF78AFA0020D8E7FB
:10753000094904F00F040A55ECE700BFF8290020C0
:10754000F029002064AD02009CAD020054AF02009F
:1075500000E100E076AF020014ED00E003680122D4
:107560001A607047036801225A60704773B501F1D1
:107570005005AD000068ADB24FF480348C40002659
:10758000C0F80843C0F84843465101F5A871455971
:10759000019522F07F42019D40F82120C0F844432C
:1075A0000BB1C0F8044302B070BD00002DE9F74FE5
:1075B0000D4622F07F4402684FF4803705F15006F3
:1075C0008F408046B60002EB8500C2F84873B6B221
:1075D000C2F80873D2F8041599464FF0000BD0F8A2
:1075E0004035C0F8401542F806B05B1A9259009237
:1075F00023F07F43012B009A4FEA850A0CD1264BDA
:107600004FF4806043F001039847D8F8003043F806
:1076100006B09B590193019BD8F80010D1F804657E
:10762000C1F84473A31B23F07F43012B1CD11A4BD9
:1076300005F5A875013443F0010341F825404FF4E6
:1076400080609847D8F80030D3F804359E4209D1BD
:10765000D8F800300020C3F84473C3F8047303B0B3
:10766000BDE8F08F0D20FAE78A44C9F1FF13CAF88C
:107670004045D1F80405221A013A22F07F4203F571
:107680007F439342EED3002AE2D10134CAF8404549
:10769000D1F804359842DAE790AF0200036802227D
:1076A000C3F8442309B1C3F80423704700684FF4BA
:1076B0008271FFF7F3BE4FF4803303FA01F10368E0
:1076C000C3F84813C3F808137047503189000068A5
:1076D00089B2FFF7E3BE0368D3F8040570470000E2
:1076E00090F90430002B09DB5A09012103F01F0334
:1076F00001FA03F34032024941F82230704700BFDB
:1077000000E100E0024B034A1B681068184700BF05
:10771000F8290020F029002010B561B1B2FBF3F484
:1077200003FB1424A4B244B9C0E90014846082812C
:10773000C381204610BD0E20FCE70920FAE737B5CB
:1077400050E8013F9DB2C48925448489A54228BFE1
:107750002D1B0489A54202BFBFF32F8F002207E033
:10776000C5EA030540E80154002CE9D14FF00102BD
:107770008DF803200193019A0A609DF8031001F02F
:10778000FF0321B1006810FA82F003B030BD184643
:10779000FBE70A884B889A4209D150E8012FC2EAD8
:1077A000024240E80123002BF7D10120704700205E
:1077B000704737B550E8023F1FFAA3F5C488A542C9
:1077C00002BFBFF32F8F00220DE0C48925448489B6
:1077D000A54228BF2D1BC3EA054540E80254002CF2
:1077E000E8D14FF001028DF803200193019A0A605D
:1077F0009DF8031001F0FF0321B1006800EB124077
:1078000003B030BD1846FBE70A884B889A4209D17D
:1078100050E8022FC2EA224240E80223002BF7D1AF
:10782000012070470020704701F01F024B09012121
:10783000914000EB830000F01EB801F01F0301220D
:107840009A404B0900EB8300D14300F02CB84B0960
:1078500001F01F0150F82300C84000F001007047FC
:1078600010B5034653E8000F0A4643E8002494F09D
:10787000000FF7D110BD10B5034653E8002F42EAC0
:10788000010043E8000494F0000FF6D110BD10B5DC
:10789000034653E8000F00EA010243E8002494F095
:1078A000000FF6D110BD10B5034653E8002F02EAD1
:1078B000010043E8000494F0000FF6D110BD10B5AC
:1078C000034653E8002F02EB010043E8000494F064
:1078D000000FF6D110BD10B5034653E8002FA2EB00
:1078E000010043E8000494F0000FF6D110BD01211F
:1078F000FFF7C1BF0021FFF7CABF10B590B1D0E9B3
:10790000012301689B1ADBB20A60013BDBB2FF2B4B
:10791000026802D10020107110BD11684C1C146067
:107920000B70F2E70E20F7E737B5054600240DF19E
:1079300007008DF80740FFF777FD2A686B6811682C
:1079400099420ED9481E106011F8013CEC68298A52
:1079500001FB0344AB6811791B1ADBB2994238BFB3
:1079600013719DF80700FFF783FD204603B030BD7B
:1079700037B5054600230DF107000C468DF807309A
:10798000FFF752FD2A681368591C1160E968641AF0
:10799000298AB4FBF1F41C709DF80700FFF768FD1D
:1079A00003B030BD826810B504462AB1436901684E
:1079B000006998470023A36010BD0EB403B5039976
:1079C00021B104AB01AA019300F076F802B05DF892
:1079D00004EB03B070470A2938B504460D4602D1BE
:1079E0000D21FFF7F8FFA3682268591CA160D55448
:1079F000D4E901329A4204D32046BDE83840FFF76B
:107A0000D1BF38BD2DE9F84F9846DDE90A43154648
:107A100082460F460A464FF00109AA420FD2C145DD
:107A200038BFC14613F0010B01D16CB90024012607
:107A3000B8F1010F1BD908F1FF386E43F8E709F1DF
:107A40000109B2FBF5F2E8E79B070ED5B8F1000F8C
:107A50000CBF30262026A145E9D2013C31465046D4
:107A6000FFF7B9FF002CF6D1E0E72026F3E7B7FBDC
:107A7000F6F39D42E1D9DFF83C80B7FBF6F35046C0
:107A800018F8031006FB1377FFF7A5FF3346AB4248
:107A9000B6FBF5F6F1D2BBF1000F02D00CB1A14557
:107AA00001D3BDE8F88F20215046013CFFF793FF3A
:107AB000F4E700BF96AF02002DE9F74F05461746E1
:107AC0008846002900F03E8118F8011B49B92B7B3C
:107AD000002B00F03781284603B0BDE8F04FFFF7D8
:107AE00061BF252940F0B780002698F800302D2B83
:107AF000424608F1010823D0302B24D02B2B25D06F
:107B000000242A2B02F1010123D13B681A1D1B68B6
:107B10003A601C440A4613782E2B26D101324FF0CE
:107B2000000A104610F8011BA1F1300CBCF1090F3E
:107B30001DD80A2303FB0A13A3F1300A0246F0E71B
:107B400046F00106D1E746F00206CEE746F004060D
:107B5000CBE711F8013CA3F130000928DBD80A2259
:107B600002FB0434303C0A46CBE74FF0000A12F81F
:107B7000011B01F0FB0068289046F8D0782909D84D
:107B80006F290CD8632962D022D8252963D05829BF
:107B900000F0888098F80030002B95D197E7703975
:107BA0000829F7D801A353F821F000BF1F7D020078
:107BB000957B0200957B0200B57C0200957B02005C
:107BC000937C0200957B0200957B0200A57C02005D
:107BD000642901D06929DDD13A68D2F80090111DDD
:107BE00089EAE9723960A2EBE9724FF0010B092AC8
:107BF00035DCD34538BFD3462CB1B9F1000F01DBDA
:107C0000720700D5013CB30702D5BAF1000F03D0CB
:107C1000F00701D44CBB0024B9F1000F2DDAC9F1F3
:107C200000092D212846FFF7D6FE06F00302022A9E
:107C300004D1BAF1000F01D11CBB0024CDE90046EC
:107C400053460A2249462846FFF7DCFEA2E73B6876
:107C50001A1D19783A602846FFF7BDFE9AE70A23F5
:107C60000BF1010BB2FBF3F2C1E7A345D4D2202103
:107C70002846013CFFF7AFFECCE77107D5D52B2195
:107C8000D0E7A345DAD230212846013CFFF7A3FE16
:107C9000D2E73968CDE900460A1D3A6053460A2208
:107CA0000968D0E739680A1D3A60CDE900465346B5
:107CB0001022F5E73B681A1D3A6016F00106D3F86A
:107CC000009024D1B9F1000F03D0484602F0E7FF3D
:107CD0000646B4421DD809F1FF3919F8011F0029E1
:107CE0003FF458AF2846FFF776FEF6E72846013600
:107CF000FFF771FE19F806100029F7D1A642BFF46C
:107D000049AF20212846013CFFF765FEF6E7002633
:107D1000F0E720212846013CFFF75DFED9E73B68EC
:107D20001A1D3A60302128461C68FFF754FE78215E
:107D30002846FFF750FE00220823CDE900322146F5
:107D4000102280E703B0BDE8F08F00BF2DE9F84FA7
:107D5000B0F806A04579D2F800B09DF828900AFB4B
:107D600005F5043D88460BEB0301A94203F1040429
:107D700088BFA5EB030BB4FBFAF607460AFB1644D3
:107D8000C2F800B04EB9AAEB04055D4528BF5D46B8
:107D9000BBF1000F04D1BDE8F88F3F68013EF1E769
:107DA000043408EB06003C442A46B9F1000F0DD01C
:107DB0002146ABEB050B02F016FFDA452E443F6877
:107DC00055464FF0000428BF5D46E1E701462046D6
:107DD000EFE7FFF792BDF8B546790146721E0546FA
:107DE000002393422D6803D30024A64202D8F8BD95
:107DF0000133F6E70F682846FFF7BAFD013439462C
:107E0000F3E72DE9F843068ACD1C0746FFF78CFD02
:107E1000043E35440446B5FBF6F5F0B14FF48073EB
:107E2000EDB28380C680013D076081464FF00008B7
:107E3000A84512D23846FFF777FD064648B1637968
:107E40000133637108F10108C9F800000760814639
:107E5000EEE72046FFF7BFFF34462046BDE8F88333
:107E600001210430FFF72BBD10B501210446043079
:107E7000FFF731FDC0B220B92046BDE81040FFF742
:107E8000AABF10BD1FB503920022009203AAFFF7FC
:107E90005DFF05B05DF804FB1FB50392012200925F
:107EA00003AAFFF753FF05B05DF804FB41DF7047FD
:107EB000064B10B500241C70054B1C60BFF35F8F90
:107EC0000449054800F03BF8204610BD042A002074
:107ED000082A0020B0AF0200FC29002007B50023CB
:107EE0000DF107008DF80730FFF79EFAF1EE103A1A
:107EF00023F09F03E1EE103ABFF35F8F0A4B40225D
:107F0000C3F884219DF80700FFF7B2FA02F0B0FB36
:107F100020B103B05DF804EBFFF7C8BF20BF40BF3E
:107F200020BF03B05DF804FB00E100E0836800229D
:107F30005A60C3E904229A60DA601A6070470B68DD
:107F40004A684360934208BF0023016008BF436052
:107F50007047436843B10268916852680B4493428A
:107F6000436004BF00234360704770B54468064611
:107F70000D46206818B1B3682946984718B9236898
:107F80002B60256070BD2468F3E74368186808B16A
:107F900002681A6070474368186870474368186839
:107FA00000B97047884203D102681A600120704707
:107FB00003460068F4E7000010B50D49A1F594727E
:107FC000914201D800200FE08C1AE30F03EBE40389
:107FD0005B1002EBC30452F83330834205D802D25F
:107FE00004F10802ECE7606810BD2146E8E700BF35
:107FF000BCB4020008B5FFF7DFFF024B002808BF42
:10800000184608BD7FB302004FF08053D3F830010B
:10801000421C04BF4FF0704393F8E00F831F584297
:10802000584170474FF0704393F8E02F062A09D16A
:10803000D3F8E83FC3F30313033B032B02D8024AF0
:10804000D05C704700207047C4B4020008B5FFF749
:10805000DBFF40B14FF080538F4AD3F82433C3F392
:108060000423C2F84035FFF7DDFF10B18B4B8C4A7B
:108070005A67FFF7C9FF48B14FF080534FF0804275
:10808000D3F84432C3F34233C2F83C35FFF7CAFF9A
:1080900030B1844AD2F8FC3023F08073C2F8FC304F
:1080A000FFF7B2FF40B14FF080430022C3F80C212C
:1080B000C3F81021C3F83825FFF7B4FF20B14FF003
:1080C00080430322C3F8A025FFF7ACFF60B1764BD5
:1080D0000522C3F810260122C3F888260022C3F81F
:1080E00018263F22C3F814264FF08053D3F83021CE
:1080F000511C09BF4FF07043D3F8343193F8E02F8F
:10810000D3F8E83F08BFC3F30313062A4DD1033B5E
:10811000032B03D8654AD35C002B46D04FF0805226
:10812000634BD2F80414C3F82015D2F80814C3F82E
:108130002415D2F80C14C3F82815D2F81014C3F87B
:108140002C15D2F81414C3F83015D2F81814C3F84B
:108150003415D2F81C14C3F84015D2F82014C3F813
:108160004415D2F82414C3F84815D2F82814C3F8DB
:108170004C15D2F82C14C3F85015D2F83014C3F8AB
:108180005415D2F83414C3F86015D2F83814C3F873
:108190006415D2F83C14C3F86815D2F84014C3F83B
:1081A0006C15D2F84424C3F87025FFF72DFF48B1B1
:1081B0004FF080534FF08042D3F8583203F04F0312
:1081C000C2F8E43EFFF720FF48B14FF08043D3F8F8
:1081D0000024D20744BF6FF00102C3F800244FF01F
:1081E0008053D3F83021062A0ED1D3F83431033B23
:1081F000032B02D82F4AD35C33B12F4AD2F83C3735
:1082000043F48063C2F83C37264AD2F8883043F4FE
:108210007003C2F88830BFF34F8FBFF36F8F4FF0FA
:108220001023D3F80022002A03DBD3F80432002BFA
:108230002EDA224B0122C3F80425D3F80024002AA9
:10824000FBD04FF010221521C2F80012D3F8002401
:10825000002AFBD04FF010231522C3F80422174B3D
:10826000D3F80024002AFBD00022C3F80425D3F859
:108270000024002AFBD0BFF34F8F0A49104BCA6875
:1082800002F4E0621343CB60BFF34F8F00BFFDE702
:108290000C4B0D4A1A6008BD0030014000C0074079
:1082A0000DF0ADBA00ED00E000500040BCB402009B
:1082B00000C00040C0B402000010004000E00140D7
:1082C0000400FA05142300200090D003044B1A5C2C
:1082D000012393404FF0A042C2F80C35704700BF15
:1082E000C8B40200044B1A5C012393404FF0A04233
:1082F000C2F80835704700BFC8B4020008B50020B6
:10830000FFF7F0FF0120FFF7EDFF0220FFF7EAFF84
:10831000BDE808400320FFF7E5BFC20708B50146E6
:108320000CD54FF0A0430322C3F84427C3F84827D5
:10833000C3F84C27C3F85027FFF7E0FF8B070AD597
:108340004FF0A0430C22C3F83427C3F83827C3F8F2
:108350003C27C3F8402708BD38B5074C051E04F17B
:10836000080318BF1C4623682BB11A6822605B689B
:1083700028469847F7E738BD142A002020B9054B56
:1083800001225A70FFF7E8BF012802D1014A90701C
:10839000F8E770470C2A002020B9034B01225A70DD
:1083A000FFF7DABF704700BF0C2A002038B50E4C2B
:1083B0002378B3B90D486360A3602361E36000F0E4
:1083C000E7F8054602F054F908B900F0EDF801238A
:1083D0002370074BD3F800340BB10123A370284658
:1083E00038BD8525F5E700BF0C2A00207D830200FB
:1083F0000000014037B50D4C00230DF107008DF84A
:108400000730FFF711F8E368013BE360E36833B935
:10841000074BD3F8005415B900F0D8F8A5709DF8B3
:108420000700FFF725F803B030BD00BF0C2A00207D
:1084300000000140012813B50CD0032820D038B922
:10844000134B0122C3F88020BFF34F8FBFF36F8F10
:1084500002B010BD0F4C00230DF107008DF807305E
:10846000FEF7E2FF23780BB9FFF7A0FFE3689DF862
:1084700007000133E3600123A370FEF7F9FFE7E78C
:1084800000F092F802B0BDE81040FFF7B3BF00BFA4
:1084900000E100E00C2A00201FB503788DF80030C1
:1084A0004368019383688DF80830C368054A0393D5
:1084B000054B684653F8213052F82110984705B013
:1084C0005DF804FB202A0020242A00201FB5037831
:1084D0008DF800304368019383688DF80830C368D5
:1084E000054A0393054B684653F8213052F8211092
:1084F000984705B05DF804FB202A0020242A0020BC
:10850000F0B5194B90F800C091F81DE043F82C200D
:10851000164B16460A6943F82C20154B03F80CE05D
:108520000C4607460FCC89B06D460FC594E80F0086
:1085300085E80F00CDF810C0BEF1000F09D0002E65
:108540000C4A694608BF3246381D00F0ABFD09B041
:10855000F0BD002E084A694608BF324607F10C00FC
:1085600000F082FBF3E700BF242A0020202A00202D
:10857000282A002099840200CD84020000F1804066
:10858000002382B0036003680193019B02B070472F
:10859000044A137923B9012110609180184670476D
:1085A000852070472C2A0020074B1A68D20704D474
:1085B000C02283F8002301221A604FF08043012279
:1085C000C3F81825704700BF00E100E04FF080427B
:1085D00008B50223C2F808334FF48270FFF7CEFFCC
:1085E0000123D360D2F81834DB03FBD408BD0000AC
:1085F0004FF0804110B5D1F8003163B14FF4807075
:10860000FFF7BCFF0D4B58790122C1F8082310B9C0
:108610005A711B6898474FF08042D2F8043163B119
:108620004FF48270FFF7AAFF0223C2F80833034B0E
:10863000BDE810401B680120184710BD2C2A0020FF
:1086400000F1804000F5C040002382B00360036861
:108650000193019B02B07047800000F1A040D0F868
:10866000002722F44032C0F80027D0F8003743EA50
:108670000141C0F800177047054B4FF0FF32072843
:1086800043F8202084BFC01880F84820704700BFFE
:10869000342A002010B51A4C94F858306BBB4FF0B8
:1086A000FF3222FA03F1C90748BFE11803F10103C1
:1086B00048BF81F83020202BF3D10021C8B201310E
:1086C000FFF7DAFF0C29F9D1042200210D4802F04E
:1086D000B3FA0D4BC02283F8062340221A604FF4F0
:1086E000BE70FFF7ADFF094B4FF00042C3F8042303
:1086F000012384F85830002010BD0820FCE700BF9B
:10870000342A0020882A002000E100E000600040B8
:10871000034B93F85800003818BF0120704700BF82
:10872000342A0020F0B5394E331893F93030002B3D
:1087300069DA8D78C5F34005002D0BBF08230023AF
:108740000C240824A34201D10420F0BD56F8237064
:10875000013743D137185CB246F8232087F8304000
:1087600015B9F21882F848008A78550716D4D70749
:1087700036D5820002F1A042D2F8005725F002055A
:10878000C2F80057224FC50800F0070C012202FA78
:108790000CF217F805C042EA0C027A558A780D7877
:1087A00012F0020225D09B0003F1804303F5C04381
:1087B0000002D3F8102522F4473222F44072C3F8A5
:1087C00010252D04D3F8102500F4F85005F4403599
:1087D00028431043C3F810050020B6E70133B1E782
:1087E0004D7800F5E0724FF0A047AD0047F82250F9
:1087F000C8E7083C46FA84F494F8500040EA85152E
:1088000084F85050E8E708209FE700BF342A002092
:10881000882A002038B5204C251895F93020072AE1
:1088200018DD083A44FA82F494F850309B09032B7F
:108830000BD14FF0A043D3F81015C14001F0010156
:108840000231BDE83840FFF707BF012B0CBF022102
:108850000321F6E7D3B2072B1DD8930003F1804321
:1088600003F5C043D3F8100540F00100C3F810052C
:1088700002F1400040B2800080B2FFF7E1FE51B14A
:1088800095F9303054F823302BB1012303FA02F26A
:10889000024BC3F8042338BD342A00200060004096
:1088A0000E4B034493F93020072A02DD0021FFF725
:1088B000D3BED3B2072B10D8930003F1804303F546
:1088C000C043D3F8101521F00101C3F8101501239E
:1088D00003FA02F2024BC3F808237047342A00203F
:1088E000006000404FF0A043D3F8103523FA00F0A9
:1088F00000F00100704700002DE9F74F00244E4DB5
:1089000001944FF48072012102F1804303F5C043CA
:1089100090B21B68012B06D1D5F804330B4202D06C
:10892000FFF78EFE0C430432B2F5907F4FEA41010F
:10893000EAD1414BD3F87C31012B0CD14FF4BE70FE
:10894000FFF77EFE4FF0A04344F00044D3F820250B
:108950000192C3F82025E3B2D3B1384F0025012698
:10896000344210D0AB0003F1804303F5C043D3F889
:108970001005D3F8101557F8253023B1C1F3014184
:10898000C0F3042098470135082D4FEA4606E7D189
:10899000002C48DA294D4FF0A048294E4FF000092D
:1089A000012716F9013B5A1C31D0C3F3C20202A9B8
:1089B0000A44DCB212F8042C03F03F0A03F0070368
:1089C00007FA03F31A4222D00AF5E073504658F82A
:1089D0002330C3F3014BBBF1020F0CBF0321022173
:1089E000FFF73AFE07FA0AF3C8F8203505EB0A0349
:1089F00093F9303055F823304BB1A109032904D045
:108A0000BBF1020F12D1012901D15046984709F15B
:108A10000109B9F1040FC4D1D8F820350193C8F881
:108A20002035002BB9D103B0BDE8F08FBBF1030FA7
:108A3000EDD10229E8E700BF00600040342A0020A1
:108A4000842A0020014B1B68184700BF902A002091
:108A50000E4B984237B50C4602D0002003B030BD13
:108A600000230DF107008DF80730FEF7DDFC084B01
:108A70001D7915B901221C601A719DF80700FEF7D7
:108A8000F7FC002DE9D01120E8E700BF00200040EE
:108A9000902A0020034B984201BF034B00221A602A
:108AA0001A71704700200040902A00200023435094
:108AB00082B043580193019B02B070470A4610B53B
:108AC0004FF48E71FFF7F2FF136A9168C95C136A65
:108AD00001331362C0F81C1510BD8B690A4610B52E
:108AE0004FF4847123B9FFF7E1FFD0F8183510BDBA
:108AF000FFF7DCFF536AD168D0F81805C854536AF1
:108B000001335362F3E700001FB501238DF80030F5
:108B1000044BCDE90110D3E900126846904705B037
:108B20005DF804FB982A002030B54D4DD5F804338C
:108B30009A0585B051D5D5F82431002B4DD04FF48E
:108B400092712846FFF7B2FF4FF40173C5F808335E
:108B5000444B93F829200AB901226A604049022255
:108B60008DF80020D1F88024C1F8802403929A69FE
:108B70000292DA6801920022C3E906226846D3E92C
:108B8000001290473648D0F81C315BB1354A516924
:108B9000136A99424DD992F82830002B49D11146D9
:108BA000FFF78CFF2E48D0F84431002B56D04FF4FD
:108BB000A271FFF77BFF2B4B93F829200AB101220A
:108BC00002609A69002A49D0586AD96800229A61DD
:108BD00005B0BDE83040FFF797BFD5F804335B0719
:108BE000D0D5D5F80831002BCCD01E4C1C482146DE
:108BF000FFF773FF636AA2699A42C3D1E369E16830
:108C00004BB1A3612369E3600023606AE36163629F
:108C1000FFF77AFFB6E794F829300BB901236B60B0
:108C20000F4B4FF40172C3F808230023606AA3615D
:108C3000EEE70B484FF48E71FFF738FF5369002BB6
:108C4000B0D051690291002391688DF800300191F4
:108C500053616846D2E900139847A3E705B030BDD9
:108C600000200040982A00202DE9F843534D90F849
:108C700004802C2303FB0853064693F82A300C4645
:108C80009146002B40F096804D490068FFF7E0FECA
:108C90000746002840F0908022683068511C0BD0B5
:108CA0004FF0A04101239340C1F8083502F5E0736D
:108CB0004FF0030C41F823C061684B1C1FBF01F546
:108CC000E0734FF0A04C4FF0000E4CF823E0A36986
:108CD000C0F8243594F814C0637DBCF1010F4CEA50
:108CE0000303C0F86C35C0F81415C0F80C251DD16D
:108CF000A268531C1FBF02F5E0734FF0A0414FF074
:108D0000000C41F823C0E368591C0BD04FF0A04C75
:108D100001219940CCF8081503F5E0714FF0030EDE
:108D20004CF821E0C0F80835C0F810252C2202FBD1
:108D300008F2AB18C3F804902369AB50B9F1000FE7
:108D400020D04FF48E71247FFFF7B0FE4FF4A27154
:108D50003068FFF7ABFE32681A4BC2F80433130BCE
:108D600042F307326101002AC9B21EDB164884189B
:108D700084F800130121520903F01F0301FA03F3E1
:108D800040F8223033680422C3F800252C2303FB6B
:108D900008530022C3E9062283F829205A610122E0
:108DA00083F82A203846BDE8F883084A03F00F0309
:108DB000D154E7E70827F5E71127F3E7982A0020C1
:108DC000298B02008000020000E100E014ED00E0C9
:108DD000F8B503680579304C0022C3F800252C2231
:108DE00002FB05425268A2B12C4AC3F808231A0BB1
:108DF00043F30733002B0CDB02F01F015B09012258
:108E00008A402033264941F82320BFF34F8FBFF318
:108E10006F8F0068D0F80C65D0F81415D0F80835BD
:108E2000D0F810254FF0FF37BE42C0F8147518BFB8
:108E300006F5E076C0F80C75C0F80875C0F8107536
:108E40001EBF4FF0A0474FF0020C47F826C04E1C43
:108E50001FBF4FF0A04601F5E071022746F82170D0
:108E6000511C1FBF4FF0A04102F5E072022641F8ED
:108E700022605A1C1FBF03F5E0734FF0A04202218D
:108E800042F82310FFF706FE2C2303FB05440023C2
:108E900084F82A306360F8BD982A0020840202001A
:108EA00000E100E00279044B2C2101FB02335869F8
:108EB000003818BF01207047982A00202DE9F84F8C
:108EC000064690F8048089469246FFF7EBFF044679
:108ED00000283CD1204F2C2508FB057B4FF48E71D8
:108EE000CBF814A0CBF80890CBF820008BF8280022
:108EF0003068FFF7DBFD3068012383605946FFF7D8
:108F0000DDFDDBF804305D461BBB3068DBF8144048
:108F10002B6A9C4211D83368D3F81C21002AFBD05D
:108F20000122DA6000202C2303FB087700237B61F9
:108F3000BDE8F88F95F828303BB9D0F81C31002BEC
:108F4000F8D05946FFF7BAFDE2E70F20EBE7112012
:108F5000EEE72046ECE700BF982A002000234350AC
:108F600082B043580193019B02B070471FB50123A3
:108F70008DF80030044BCDE90110D3E900126846AA
:108F8000904705B05DF804FBC42A00207FB5434A32
:108F9000D2F82461002E60D010464FF49271FFF792
:108FA000DDFF02238DF80030D2F88034C2F880341F
:108FB0000393D2F83C350293394BDA6801920022D0
:108FC000C3E906226846D3E9001290473348D0F837
:108FD000443173B14FF4A271FFF7C0FF304B9A696F
:108FE0003AB10022C3E90622D968D0F83C05FFF760
:108FF000BDFF2A48D0F82031ABB14FF49071FFF794
:10900000ADFF0123C360264B5A6962B1D0F84C15FD
:109010000291002299688DF8002001915A616846FA
:10902000D3E9001290471D48D0F858319BB14FF456
:10903000AC71FFF793FF1A4B5A6962B1D0F84C1527
:109040000291002299688DF8002001915A616846CA
:10905000D3E90012904704B070BDD2F81031002B54
:10906000B4D04FF488711046FFF778FF0C4BD2F85C
:109070003C0599698842A9D1DC69D96864B1D2F804
:10908000005225F02005C2F800521A699C61DA608E
:10909000DE61FFF76BFF99E79C61FAE70020004073
:1090A000C42A00202DE9F8435A4E90F80480242366
:1090B00003FB0863044693F820300D469146002BCD
:1090C00040F0A38054490068FFF7C2FC074600281F
:1090D00040F09D802A682068511C0BD04FF0A041C1
:1090E00001239340C1F8083502F5E0734FF0030CFB
:1090F00041F823C069684B1C1FBF01F5E0734FF0B6
:10910000A04C4FF0000E4CF823E0AB69C0F82435BA
:1091100095F814C06B7DBCF1010F4CEA0303C0F855
:109120006C35C0F80C25C0F814151DD1AA68531C65
:109130001FBF02F5E0734FF0A0414FF0000C41F863
:1091400023C0EB68591C0BD04FF0A04C0121994073
:10915000CCF8081503F5E0714FF0030E4CF821E050
:10916000C0F80835C0F81025242202FB08F2B31815
:10917000C3F804902B69B350B9F1000F2FD04FF40E
:1091800088712A7FFFF7EAFE20684FF49071FFF79D
:10919000E5FE20684FF49271FFF7E0FE20684FF47F
:1091A000A271FFF7DBFE4FF4AC712068FFF7D6FE2B
:1091B00023681A49C3F80413190B43F30733520108
:1091C000002BD2B21CDB1648C51885F800230122FB
:1091D0005B0901F01F0102FA01F140F82310236836
:1091E0000822C3F80025242303FB08660023C6E9F0
:1091F00006337361012386F820303846BDE8F883D2
:10920000084B01F00F015A54E9E70827F5E7112749
:10921000F3E700BFC42A00208D8F02001003420034
:1092200000E100E014ED00E0F8B5444C057924239A
:1092300003FB054302465B680068ABB1404BC0F8D6
:10924000083340F30733002B4FEA10310CDB01F0F9
:109250001F065B090121B14020333A4E46F8231026
:10926000BFF34F8FBFF36F8FD0F8003223F020038E
:10927000C0F80032242303FB05439B692BB14FF454
:10928000A271FFF76BFE012343604FF4AC71FFF74F
:1092900065FE0123C360242303FB0543D0F8581166
:1092A0000029FBD0996919B1D0F844110029F5D0F3
:1092B0000023C0F800351368D3F80C75D3F8146593
:1092C000D3F80825D3F810154FF0FF3C6745C3F8D5
:1092D0000CC518BF07F5E077C3F814C5C3F808C577
:1092E000C3F810C51EBF4FF0A0434FF0020C43F867
:1092F00027C0771C1FBF4FF0A04306F5E07602277A
:1093000043F826704E1C1FBF01F5E0714FF0A043DB
:10931000022643F82160531C1FBF4FF0A04302F503
:10932000E072022143F82210FFF7B4FB242303FB71
:109330000544002384F820306360F8BDC42A00206F
:109340001003420000E100E00279044B242101FBFC
:1093500002335869003818BF01207047C42A002022
:1093600001F06043B3F1005F2DE9F04706468846FF
:1093700092463BD190F80490FFF7E6FF04460028A0
:1093800036D11D4F3068242505FB09754FF49071C7
:10939000C5F814A0C5F80880FFF7E0FD4FF4AC71E4
:1093A0003068FFF7DBFD33686A69A968C3F84415C4
:1093B000C3F8482501229A606A68DAB9D3F82021F7
:1093C000D3F858011AB90028F8D00F2007E0002878
:1093D000FBD10122DA60D3F85821002AFBD02423E4
:1093E00003FB097700237B61BDE8F0871020FBE7D2
:1093F0001120F9E72046F7E7C42A002072DF704702
:1094000073DF704776DF70477ADF70477CDF704725
:109410007FDF70478FDF7047B1DF7047FDF71CBEFD
:1094200008B5064B01211878FFF7EAFF08B1FDF7F0
:1094300013FEBDE808400020FEF748BF302300209F
:109440000388212B13B5044658D007D8112B32D0EE
:10945000132B4BD0102B0CD002B010BD522B5BD075
:10946000562B01D03B2BF7D1A0881321FFF7CAFF61
:109470001AE02D4B2D482E49C01AC008000440F0B8
:109480000300FDF7DDFA0120FEF720FF0020FEF7C4
:1094900029FF284BA1882848198001F003F808B15A
:1094A000FDF7DAFDFDF796FD0028D5D002B0BDE846
:1094B0001040FDF7D1BD1C4B1C482049C01AC00804
:1094C000000440F00300FDF7BBFA0120FEF70AFF9D
:1094D000184B4FF6FF721A80FDF792FD08B1FDF7A9
:1094E000BBFD02B0BDE81040FFF79ABF1148002352
:1094F0001A4685210088FFF78BFFD5E70023808877
:109500008DF8043001A98DF80530FFF783FF00289E
:10951000A2D0FDF7A1FD9FE7064800231A46194691
:109520000088FFF779FFBFE764AD02008CAD020051
:10953000EEB4020032230020982B0020F8B4020081
:1095400008B503784BB9054B3B211888FFF75AFF44
:1095500018B1BDE80840FDF77FBD08BD32230020EB
:109560000D282DE9F3413ED1214B2248224D019196
:10957000C01AC0080004214940F00300FDF760FA5A
:10958000019A1F49288801F085FA30F0080209D0B5
:1095900043F20202904205D043F20142904201D0D0
:1095A000FDF75AFDDFF8588041F2255443F20206D8
:1095B00043F20147E343224628889BB2414601F02B
:1095C000A7FA30F0080205D0B04203D0B84201D06B
:1095D000FDF742FD0134A4B241F22F539C42E9D180
:1095E00002B0BDE8F08102B0BDE8F041FDF734BD46
:1095F00064AD02008CAD02003223002005B50200EC
:109600003C2B0020FDF728BD00B54FF48041A7B0EA
:109610000020FDF77BF808B1FDF71EFDFCF7B4FF55
:109620000120FEF77AFEFDF7D5FD08B1FDF714FD28
:109630006D4840F233320121FDF774FC08B1FDF7AB
:109640000BFDFEF735FC08B1FDF706FD00F0D2FF7B
:1096500008B1FDF701FD002317A90120179301F0C0
:1096600055F808B1FDF7F8FC17A801F001F908B1A9
:10967000FDF7F2FC11235D488DF8203001F00FFB5F
:109680005A4982B208A8FFF7C1FE08B1FDF7E4FC11
:109690000822002117A801F0CFFA5023ADF85C3062
:1096A000A023ADF85E300023ADF8603017A84FF46A
:1096B000C873ADF86230FFF7A7FE08B1FDF7CCFC28
:1096C0004B48002100F0DCFD08B1FDF7C5FC494B1B
:1096D0004948179317A900F0D3FE08B1FDF7BCFC69
:1096E000464808A901F05AF908B1FDF7B5FC41F266
:1096F0002353ADF80430414B414C93F85A308DF868
:1097000006303C22002108A801F096FA02238DF8C9
:1097100020303C2240F20163002117A8ADF822302E
:1097200001F08AFA22460123ADF86C3052F8041B8E
:1097300001AB08A81C9300F0EDF808B1FDF78CFC14
:10974000304AA16817A800F0E5F808B1FDF784FCDD
:109750001822002102A801F06FFA00230122ADF8BF
:10976000143003934FF480738DF80820ADF81C304B
:1097700023492548402302AA0493FFF73FFE08B17E
:10978000FDF76AFC1C22002117A801F055FA0023FE
:109790004FF4A022CDE91732ADF86A304FF4A03271
:1097A0008DF86C30194B19921C930322184B8DF8CD
:1097B000682017A81D9300F077FB08B1FDF74CFC5B
:1097C000144B15481549C01AC008000440F00300A6
:1097D000FDF736F9FFF724FEFCF7E8FF0028FBD180
:1097E000FEF77CFBF8E700BF182300201FB502003E
:1097F000282B00201D940200982B00203C2B0020D9
:10980000202300202C23002030230020419502003B
:109810000596020064AD02008CAD020026B5020080
:109820006DDF704779DF70477DDF704764DF704719
:109830002DE9F04F85B000250E9CBDF83CB0B4F882
:1098400000A00191074690461E46A9463A884A451F
:109850000DDC45B12388013BA3EB0A039BB2FF2B30
:109860003AD806F80A30002005B0BDE8F08F7A68D3
:1098700052F82900039000220DF10B0103A8FFF715
:10988000D5FF0028F0D19DF80B20424521D1228838
:10989000002D14BF0020022002EB080101445945AD
:1098A0001ADC3DB9013292B2019B2280B354228866
:1098B0000132228022880DF10B01324403A8FFF708
:1098C000B5FF0028D0D121889DF80B200A442280C2
:1098D000012509F10109B9E70C20C5E72DE9F3419C
:1098E000089FBDF824801546CDE900780222044681
:1098F0001E46FFF79DFF50B93346102229462046E9
:10990000CDE9087802B0BDE8F041FFF791BF02B0A1
:10991000BDE8F0812DE9F04F00231788138090F8FF
:109920002D3085B006460D46144653B3082F01D896
:109930000C2027E102A8FFF773FF002840F02281E6
:1099400023880822EA54238801339BB21B222380F8
:10995000EA542088013080B2208006220DF10901EE
:10996000284401F040F923889DF8082006339BB273
:1099700012F0FE0218BF01222380EA54238801332B
:109980002380B378FBB123880433BB42D0D802A82C
:10999000FFF748FF002840F0F58023880322EA54AF
:1099A000238801339BB219222380EA542388BDF80F
:1099B000082001339BB2E9182380EA54120A4A7046
:1099C000238802332380F2789AB12388D91CB942C4
:1099D000AED80221E954238801339BB201212380B0
:1099E000E95423880B449BB22380EA5423880B4418
:1099F00023807268AAB12388D91CB94298D8022161
:109A000092F90020E954238801339BB20A21238074
:109A1000E954238801339BB22380EA54238801331D
:109A200023803389002B40F0A180338A5BB1CDE9DC
:109A300000472B460722032106F11000FFF74EFFD7
:109A4000002840F09F80338B5BB1CDE900472B4667
:109A50001522142106F11800FFF740FF002840F0FE
:109A60009180326A002A40F09080D6F82480B8F1C4
:109A7000000F30D0B8F804302188981C8A1C0244AA
:109A8000BA423FF655AFFE283FF652AF03336B5450
:109A9000238801339BB2FF222380EA5423880133B9
:109AA0009BB22380B8F80020EA54E918120A4A70E1
:109AB0002088023080B22080B8F804205AB1D8F84B
:109AC000081000296BD0284401F08DF82388B8F8DD
:109AD00004201344238096F82C30002B40F098800B
:109AE000307800284ED03388012B58D0228802F1DC
:109AF000020CBC453FF61CAF012805D17378023338
:109B000013449F42FFF414AF023FBF1ABFB202A931
:109B100005EB0C00ADF80870FFF786FE90BB3178BE
:109B2000BDF80830022900F0B98072789A4202D359
:109B30009F4280F0B180012940F0B280974293B2F9
:109B4000C0F0AE80ADF808300821BDF80830FE2B1B
:109B50003FF6EEAE22880133AB542288013292B236
:109B60002280A9542288134423800BE0CDE90047CA
:109B70002B460622022106F10800FFF7AFFE00285F
:109B80003FF453AF05B0BDE8F08FB4F800C00CF15E
:109B90000603BB423FF6CCAE1188052901D8072049
:109BA000F0E76FF4486E01EB0E039BB24FF27D3E7F
:109BB0007345F4D95388052BF1D96FF44860181810
:109BC00080B27045EBD94FF6FF70814201D09942C7
:109BD000E5D8052305F80C30238801339BB2122108
:109BE0002380E954238801339BB223801188E954F0
:109BF000E818090A4170238802339BB223805288F7
:109C0000EA54E918120A4A702388023323802CE7A9
:109C1000B36A002BC3D04FF000084FF00C0A4FF08E
:109C2000160BB16A5FFA88F20AFB02F201EB020935
:109C3000B9F80430981CFE283FF67AAE208803332A
:109C40002B54238801339BB2238005F803B023886B
:109C500001339BB223808A5AEA54E918120A4A70E7
:109C60002088023080B22080B9F804205AB1D9F897
:109C70000810002993D0284400F0B5FF2388B9F8D4
:109C800004201344238096F82C2008F101085FFA81
:109C900088F39A42C5D823E7092156E79F42FBD2B1
:109CA000ADF8087050E775DF704776DF70477ADFF0
:109CB00070477BDF70470000034B1A8882420CBF5D
:109CC00018460020704700BFC02B0020024B9B6944
:109CD00003B11847704700BFA42B002073B585B2AD
:109CE0002846FFF7E9FF044638B3174E027A337B64
:109CF0009A420CD200F10A012846FFF7D4FFF0B1D6
:109D000011281AD002B0BDE87040FFF7DFBF002372
:109D10000372337C43B13B212846FFF7C6FF30F086
:109D2000080301D0FFF7D2FF736933B100228DF829
:109D30000420ADF8065001A8984702B070BD237A00
:109D400001332372F9E700BFA42B002037B50B467F
:109D5000497A0F4A79B9D2E901141D7A0246002DD9
:109D600018BF21465868FDF772FA78B103B0BDE814
:109D70003040FFF7ABBF00211972536933B10122A4
:109D8000ADF806008DF8042001A8984703B030BD57
:109D9000A42B00204B8802889A4212D842889A420B
:109DA0000FD380888B8840F2F311884294BF021A47
:109DB000421A9A4205D80844984234BF0020012034
:109DC00070470020704700000388122B70B50146D1
:109DD00059D004D8102B1ED0112B44D070BD502B5D
:109DE000FCD12F4BC288DB899A42F7D1038A022B20
:109DF000F4D186883046FFF75FFF05460028EDD096
:109E000001F1120000F045F938BB6868FDF737FA38
:109E10000028E3D009E0C37B012BDFD14FF6FF70B0
:109E2000FFF74AFF054620B90420BDE87040FFF760
:109E30004DBF1C4A8E880680002303721368C0F849
:109E40000A305368C0F80E3010310A30FFF7A2FF15
:109E5000134B6872DB89002BC0D129463046BDE820
:109E60007040FFF773BF8088FFF726FF0446002885
:109E7000B4D04068FDF703FA08B1FFF727FF4FF6AB
:109E8000FF732380AAE786883046FFF715FF054653
:109E90000028A3D008310A30FFF77CFF6872DCE7A6
:109EA000A42B0020D42B0020F8B5064648B3054665
:109EB0000FCD154F3C460FC495E8070084E8070016
:109EC0003068124C3C60B0B1FFF7F1FEC0B93268A7
:109ED00013682360536863600D480E4A4FF6FF73A2
:109EE00003800D4B40F8043F0021FDF7A5F9002841
:109EF00018BF032004E02046FFF7DBFE0028EBD06C
:109F0000F8BD0E20FCE700BFA42B0020D42B0020BE
:109F1000C02B0020DD9C0200E02B00200AB1FDF7E1
:109F200083BCFDF78ABC73B50191019C06466CB1F8
:109F300000252C46294601A8FDF789FC18B106EB3F
:109F4000440301349D800135142DF3D13046346033
:109F500002B070BD2DE9F04703888488103B8CB0B7
:109F600005460A2B21D8DFE803F0064020202020F8
:109F7000202020654700DFF8E880D8F80830DB4370
:109F80000093D8F804106846FDF78DFC009901A8ED
:109F9000FFF7C9FF0DF108090027019B9F4207D376
:109FA000132C12D90420FDF757F80CB0BDE8F08748
:109FB00039F802AB00260136514608EB8600FDF762
:109FC0003CFC1E2EF7D10137E7E71F482146FDF77D
:109FD0002BFC1E482146FDF727FCEB7B022BE4D12E
:109FE0001B482146FDF720FCDFE7174821460CB04F
:109FF000BDE8F047FDF721BC027A16483F2A4FEA38
:10A000001215214694BF00220122FFF787FF022D7F
:10A0100094BF0022012210482146FFF77FFF012D47
:10A020000E4894BF0022012221460CB0BDE8F04743
:10A03000FFF774BF037A002BB7D1427A0548C2F309
:10A04000C0022146F1E700BF082C0020042C0020AC
:10A050000C2C0020182C0020142C0020102C002088
:10A06000002C0020AADF7047002301380B70042861
:10A0700006D8DFE800F00306080A0C0011230B7075
:10A0800070472123FBE73123F9E71223F7E7222367
:10A09000F5E7008800F001007047F0B58B7891B0CB
:10A0A000012B0C4638BF01238DF80E3005460B8876
:10A0B000ADF80C30002116466846032200F0BCFDC6
:10A0C000607C6946FFF7D0FFA07C0DF10101FFF72E
:10A0D000CBFFE27B237B217D43EAC203227C43EA60
:10A0E00002139DF80220002922F0190203F019033F
:10A0F00014BF02210121134361F342031C220021FA
:10A1000009A88DF8023000F097FD637B13F0300F43
:10A1100015D002AF03220021384600F08DFDE07C0F
:10A120000DF10901FFF7A0FF11238DF808309DF80C
:10A130000A300E97012262F342038DF80A30637BE6
:10A140008DF824301422A37B8DF82530002104A83B
:10A1500000F072FD03AB0493A388ADF81C30A36834
:10A16000CDF814D01BB1E288ADF818200893A3698C
:10A17000002B31D001AF03220021384600F05CFDF6
:10A18000A3691A88ADF82C205A88ADF82E205A6899
:10A190000D97187B0A923946FFF766FFA3690DF108
:10A1A0000501587BFFF760FFA3699A7A197A41EAA3
:10A1B000C201DA7A9B7B41EA02119DF80620002B4E
:10A1C00001F0190122F0190214BF022301231143E7
:10A1D00063F342018DF80610E36903B10C93334633
:10A1E00004AA09A92846FFF73DFF11B0F0BD90DF92
:10A1F0007047A5DF7047B5DF704700007FB50023CB
:10A20000ADF80810ADF80A106A4602A90646ADF886
:10A210000C30ADF80E300093ADF80430FFF7E7FFD7
:10A22000054600B3114B124CE41AE408FDF7E2FEB8
:10A23000240444F0010403460E4932462046FCF74C
:10A240000CFCBDF80020BDF8023052EA030103D037
:10A2500009492046FCF701FCBDF804201AB1074962
:10A260002046FCF7F1FB284604B070BD64AD020047
:10A27000ACAD02003EB5020088B50200C7B50200D1
:10A2800078B14FF0171303601B2303711723C380AA
:10A29000038141F61B32002301614381828118460C
:10A2A00070470E207047000013B5034680880C46A7
:10A2B000B8B91A88242A00F09B8014D8112A74D0C7
:10A2C000232A00F0A680102A3ED0A37A4BB1E18861
:10A2D0000020FFF78EFF002840F0A1804FF480732C
:10A2E000638102B010BD3A2A67D0552AEDD1DB88D0
:10A2F000C988A072172B38BF17238B4228BF0B4683
:10A300002381FFF778FF60B1FDF774FE4D4B4E4996
:10A3100002464E481B1ADB081B0443F00100FCF701
:10A3200093FBE27A002AD0D12369002BCDD040F6EE
:10A330007721ADF802202289ADF80010ADF8042095
:10A34000694620469847C0E7DB7B0A790A73012BF0
:10A3500013D0022B14D0E18823898B4205D2002030
:10A36000FFF747FF70B90123E372217B637B8B42C8
:10A37000ABD20020FFF742FFA7E70B88E380EAE7B4
:10A380004B88FBE7112802D10123A372EDE7FDF70B
:10A3900031FE2C4B2E4902462C481B1ADB081B04AD
:10A3A00043F00100FCF750FBDFE71723CB800B8164
:10A3B00041F61B3348818B8187E75B89CA889342CA
:10A3C00028BF1346172B0A6938BF17230B8162B1C8
:10A3D000C97A51B140F67721ADF80010ADF802000E
:10A3E000ADF80430694620469047002363816CE74E
:10A3F0001A7A0B694A73002B3FF467AF4DF67A2146
:10A400008DF80500ADF80010ADF802008DF80420BD
:10A4100096E7197A237B994228BF1946AAE71128A3
:10A420003FF45FAFFDF7E6FD064B094902460748DA
:10A430001B1ADB081B0443F0010002B0BDE810400A
:10A44000FCF702BBACAD02004EB6020064AD0200E8
:10A450001DB60200B0DF704766DF704710B50021FF
:10A4600004464088FFF7F8FF034608B9237210BD81
:10A47000112801D10123F9E76368BDE810401847AE
:10A4800060B159B10378DE2B0AD00B684360DE233C
:10A4900003704FF6FF734380002070470E20704713
:10A4A0000820704728B10378DE2B04D141800020BA
:10A4B00070470E20704708207047F0B5054685B0FC
:10A4C0000C46002942D0002840D00B78DE2B3DD12D
:10A4D00082884B889A4204D10B7A13B10846FFF761
:10A4E000BDFF2B88112B33D0512B0FD0012B2DD139
:10A4F0002B7A012B2AD1A9886288914226D1204645
:10A50000237205B0BDE8F040FFF7A8BFAE886388AE
:10A51000B3421BD1AF79022F18D1AD7B2B1F022B79
:10A5200014D800211022684600F086FB052D18BFC4
:10A530004FF4C0736946304618BFADF804308DF84B
:10A540000070FFF787FF08B16368984705B0F0BD5A
:10A550006388AA889A4204BF4FF6FF736380F5E7C9
:10A5600010DF704713B5044609496846FDF7E7FC5C
:10A57000019808B902B010BDD0E9002120469047EB
:10A5800018B16846FDF7E5FCF2E71120F2E700BFDD
:10A5900098B6020013B5044607496846FDF7CFFC9C
:10A5A000019B0BB902B010BD2046D3E900219047B2
:10A5B0006846FDF7CEFCF3E7B0B602000B4991F810
:10A5C00016335A09EC231341DB0706D5084B9A686A
:10A5D0003AB94FF480030B60704742F20200FCF777
:10A5E0003BBD1A6842F480021A60704700E100E047
:10A5F000E4290020F7B5194F3C7864BB184E0125BB
:10A6000020463570FFF7AEFF112821D02046FFF716
:10A61000C1FF144B8DF80340186801900DF1030041
:10A62000FCF702FF104901A8FFF79AFF0446B0FAB1
:10A6300080F0400938709DF80300FCF719FF3CB921
:10A640000A4B34701C70FFF7B9FF2846FFF7A2FFD2
:10A65000204603B0F0BD0824FAE700BF7D2C00209F
:10A660007C2C002092B60200757002007E2C002027
:10A67000014B1878704700BF7D2C002007B50849B2
:10A680006846FDF75CFC019B13B903B05DF804FB61
:10A69000D3E9002090476846FDF75BFCF3E700BF75
:10A6A000A4B60200FFF7EABF60DF704769DF7047BA
:10A6B00061DF704730B5134B1B7891B0FBB1124D81
:10A6C00034240DF1020103A8ADF80240FFF7F0FFBA
:10A6D00070B9294601A8FDF732FC029B002BF0D08F
:10A6E00003A8D3E90021904701A8FDF732FCF4E765
:10A6F000052804D011B0BDE83040FCF7ADBC11B066
:10A7000030BD00BF7F2C0020F4B8020030B50546F4
:10A7100085B00C46002900F099804D4B0B600C224F
:10A72000002101A800F088FA01238DF80630226884
:10A730008DF80450062301A92020ADF80830FFF75A
:10A74000B5FF60B1FDF756FC424B43490246434812
:10A750001B1ADB081B0443F00100FCF775F90C22FF
:10A76000002101A800F068FA01238DF80530226865
:10A77000002301A94020ADF80630FFF797FF60B134
:10A78000FDF738FC334B3649024634481B1ADB08C8
:10A790001B0443F00100FCF757F90C22002101A82B
:10A7A00000F04AFA0A2322688DF8043001A901203A
:10A7B000FFF77CFF60B1FDF71DFC264B29490246DF
:10A7C00026481B1ADB081B0443F00100FCF73CF988
:10A7D0000C22002101A800F02FFA4FF4B063226888
:10A7E000019301A9A120FFF761FF60B1FDF702FC11
:10A7F000184B1D49024619481B1ADB081B0443F07D
:10A800000100FCF721F90C22002101A800F014FA44
:10A810009DF8043022686FF3000301A9A0208DF891
:10A820000430FFF743FF034668B1FDF7E3FB094B34
:10A830000E49024609481B1ADB081B0443F00100BD
:10A84000FCF702F90023184605B030BD0E23FAE7E5
:10A85000F0220020BCAD0200BCB6020064AD0200D4
:10A8600002B702004EB702009AB70200EBB702002F
:10A8700073B505460668FFF717FF2B68B342044619
:10A880001DD91A481A4B1B491B1ADB081B0443F03D
:10A8900002000190FCF7D4F82B6817490198324662
:10A8A000FCF7DBF84FF080532A68D3F80C311349DA
:10A8B00001989B0203F100539A1AFCF7C5F82CB9D2
:10A8C0000F4B01221A70204602B070BD2046FDF7E2
:10A8D00091FB074B0B49024604481B1ADB081B047B
:10A8E00043F00100FCF7B0F8EDE700BF64AD0200F3
:10A8F000BCAD02003EB802006DB802009EB8020076
:10A900007F2C0020C8B802004BDF70471FB50E4CEB
:10A9100001A8FFF7F9FF70B9214602A8FDF70FFB68
:10A92000039B002BF4D00198D3E90021904702A8A3
:10A93000FDF70FFBF4E7052804D004B0BDE8104094
:10A94000FCF78ABB04B010BD0CB90200A8DF704749
:10A95000AEDF704762DF7047A1F5A95105390929BB
:10A960001AD8DFE801F00507090B0D0F11131517B1
:10A970000A307047123070471A30704722307047E3
:10A980002A307047323070473A3070474230704753
:10A990004A3070475230704770477047F0B53C4BB3
:10A9A0008FB002AA044603F11007164618685968CA
:10A9B000154603C50833BB422A46F7D104F15A01B4
:10A9C0003046FFF7C7FF00285FD194F85A308DF862
:10A9D0000630224641F2235301A90120ADF804308C
:10A9E000FFF7B4FF002850D10146202206A800F04E
:10A9F00023F941F22453ADF8183094F85A308DF809
:10AA00001A304FF0011307939DF82530224623F0AA
:10AA1000120343F012038DF8253032F8020B0123A4
:10AA200006A98DF829308DF82B30FFF736FB60BB77
:10AA300041F225554FF002162022002106A800F011
:10AA4000FBF894F85A308DF81A309DF82530ADF89F
:10AA5000185023F0120343F012038DF825302946D5
:10AA60000123204607968DF829308DF82B30FFF70B
:10AA700073FF06A902462088FFF70FFB28B90135AE
:10AA8000ADB241F22F539D42D6D10FB0F0BD00BF01
:10AA900018B9020070B588B00D468DF80720102255
:10AAA000044601260DEB02000021ADF80E6000F017
:10AAB000C3F86B88ADF810300DF10703079304A9B4
:10AAC0000DF10E0320468DF812600693FFF740FF4C
:10AAD00008B070BDF0B585B004460E46174600219B
:10AAE000102268461D4600F0A7F80123394630467B
:10AAF0008DF80230FFF730FF0388ADF8003069466B
:10AB00000AAB204603950293FFF722FF05B0F0BD84
:10AB10001FB58DF80C301B0A8DF80D300223009301
:10AB200003ABFFF7D7FF05B05DF804FB7F2805D81E
:10AB3000034B185C034B5B5C184070470020704768
:10AB400034B90200B4B90200A0F16103192B98BF17
:10AB500020387047A0F14103192B98BF203070476F
:10AB60007F2805D8034B185C034B5B5C184070478B
:10AB70000020704734B90200B4B90200A0F16103AB
:10AB8000192B98BF20387047A0F14103192B98BFAB
:10AB9000203070477F299ABF017001206FF02E008E
:10ABA00070475AB10A787F2A0AD800B102600021A2
:10ABB00019605960501A18BF012070470020704773
:10ABC0006FF02E007047000008B5034B5B689B6870
:10ABD0001B68984708BD00BF3423002008B5092131
:10ABE000FFF7F2FF08BD844640EA010313F0030FAC
:10ABF00018D18446202A0BD32DE9F007B1E8F807D5
:10AC0000A0E8F807A2F12002202AF7D2BDE8F00759
:10AC1000042A07D351F8043B40F8043BA2F1040294
:10AC2000042AF7D2002A05D011F8013B00F8013BB5
:10AC3000013AF9D1604670478446002A2DD010F0C1
:10AC4000030F04D000F8011B013A26D0F7E7C9B280
:10AC500041EA012141EA0141202A12D3A2F1200256
:10AC60002DE9F0030B460C460D460E460F4688466E
:10AC70008946A0E8FA03203AFBD2BDE8F00320326F
:10AC80000BD0042A05D340F8041B043A05D0042A4B
:10AC9000F9D200F8011B013AFBD16046704700F180
:10ACA000010110F0030F11D010F8012B002A23D05E
:10ACB00010F0030F0AD010F8012B002A1CD010F05E
:10ACC000030F03D010F8012B002A15D02DE97000D6
:10ACD0004FF001324FF0803350F8044BA4EB0205E3
:10ACE00025EA04051D4000D1F6E7A0F1040070BC80
:0EACF00010F8012B002AFBD1A0EB01007047E9
:08AD000099830200000000002D
:10AD0800559F020000000000A9A20200282B002085
:10AD1800C99D020000000000BBA40200982B00207F
:10AD28009BA902003C2B0020419402000000000077
:08AD3800358402000000000058
:10AD4000B5A60200000000000DA9020000000000EE
:10AD50008C230020542400205C2400209423002015
:04AD600018000000D7
:10AD6400D2B4020000000000D8B4020000000000C9
:10AD7400DFB4020000000000E3B4020000000000A1
:10AD8400E8B40200000000003AAE02000000030331
:10AD940010AF02000000000039AF02000000000004
:10ADA400CCB40200000000007DB6020000000303E2
:10ADB4008AB6020000000303E5B8020000000303A2
:10ADC40000B9020000000303A6AF02000000000067
:08ADD400BCAF0200000000000A
:10ADDC000CAE02000000000018AE0200042300209C
:10ADEC00FFFFFFFFFFFFFFFFFFFFFFFFFFFFFFFF67
:10ADFC0000000000000000000000D6010601000069
:10AE0C00F164020055650200A16402007561727460
:10AE1C005F6C6F675F6261636B656E640042616358
:10AE2C006B656E647320666C757368656400617025
:10AE3C00700000007C2800207F000000FC2800200F
:10AE4C001B5B313B33316D0025734C6F6773206492
:10AE5C00726F70706564202825642925730D0A00B3
:10AE6C001B5B306D002573003C25733E2025733A27
:10AE7C002000202530327800202020007C00256323
:10AE8C00001B5B313B33306D001B5B313B33326D50
:10AE9C00001B5B313B33336D001B5B313B33346D3B
:10AEAC00001B5B313B33356D001B5B313B33366D27
:10AEBC00001B5B313B33376D007761726E696E67D7
:10AECC0000696E666F006465627567006CAE0200A7
:10AEDC008DAE02004CAE020095AE02009DAE02009B
:10AEEC00A5AE0200ADAE0200B5AE0200BDAE0200D2
:10AEFC000000000026AF0200C5AE0200CDAE02007D
:10AF0C00D2AE02006170705F627574746F6E000077
:10AF1C0020290020466174616C206572726F72008A
:10AF2C0053797374656D207265736574006170700C
:10AF3C005F74696D6572000001000600000000007E
:10AF4C005C290020E170020052544320696E737436
:10AF5C00616E636520616C726561647920696E69EC
:10AF6C007469616C697A65642E005254433A2069A5
:10AF7C006E697469616C697A65642E00000000006A
:10AF8C00000000000338FDD87047303132333435BF
:10AF9C00363738394142434445467077725F6D67A6
:10AFAC006D74000008AD020008AD02000400000042
:10AFBC00736F72746C697374004E52465F535543D1
:10AFCC0043455353004E52465F4552524F525F53C6
:10AFDC0056435F48414E444C45525F4D495353498B
:10AFEC004E47004E52465F4552524F525F534F46AA
:10AFFC00544445564943455F4E4F545F454E41427C
:10B00C004C4544004E52465F4552524F525F494E9A
:10B01C005445524E414C004E52465F4552524F528F
:10B02C005F4E4F5F4D454D004E52465F4552524F5D
:10B03C00525F4E4F545F464F554E44004E52465F42
:10B04C004552524F525F4E4F545F535550504F52D2
:10B05C00544544004E52465F4552524F525F494E42
:10B06C0056414C49445F504152414D004E52465F4F
:10B07C004552524F525F494E56414C49445F5354CE
:10B08C00415445004E52465F4552524F525F494E15
:10B09C0056414C49445F4C454E475448004E52462D
:10B0AC005F4552524F525F494E56414C49445F46A0
:10B0BC004C414753004E52465F4552524F525F49E6
:10B0CC004E56414C49445F44415441004E52465FF8
:10B0DC004552524F525F444154415F53495A4500C7
:10B0EC004E52465F4552524F525F54494D454F5553
:10B0FC0054004E52465F4552524F525F4E554C4C87
:10B10C00004E52465F4552524F525F464F52424993
:10B11C004444454E004E52465F4552524F525F4991
:10B12C004E56414C49445F41444452004E52465F96
:10B13C004552524F525F42555359004E52465F454D
:10B14C0052524F525F434F4E4E5F434F554E540039
:10B15C004E52465F4552524F525F5245534F5552D5
:10B16C00434553004E52465F4552524F525F4D4F2E
:10B17C0044554C455F4E4F545F494E495449414CE0
:10B18C00495A4544004E52465F4552524F525F4D0C
:10B19C00555445585F494E49545F4641494C4544C6
:10B1AC00004E52465F4552524F525F4D55544558D2
:10B1BC005F4C4F434B5F4641494C4544004E524611
:10B1CC005F4552524F525F4D555445585F554E4C4A
:10B1DC004F434B5F4641494C4544004E52465F45F8
:10B1EC0052524F525F4D555445585F434F4E445F3A
:10B1FC00494E49545F4641494C4544004E52465FC6
:10B20C004552524F525F4D4F44554C455F414C5245
:10B21C00454144595F494E495449414C495A45446A
:10B22C00004E52465F4552524F525F53544F52415B
:10B23C0047455F46554C4C004E52465F4552524F67
:10B24C00525F4150495F4E4F545F494D504C454DF4
:10B25C00454E544544004E52465F4552524F525F44
:10B26C00464541545552455F4E4F545F454E414201
:10B27C004C4544004E52465F4552524F525F494F27
:10B28C005F50454E44494E47004E52465F45525220
:10B29C004F525F4452565F5457495F4552525F4F6D
:10B2AC0056455252554E004E52465F4552524F52E1
:10B2BC005F4452565F5457495F4552525F414E416D
:10B2CC00434B004E52465F4552524F525F445256CA
:10B2DC005F5457495F4552525F444E41434B004EB9
:10B2EC0052465F4552524F525F424C455F49505354
:10B2FC00505F52585F504B545F5452554E4341541B
:10B30C004544004E52465F4552524F525F424C45A7
:10B31C005F495053505F4348414E4E454C5F414C42
:10B32C0052454144595F455849535453004E524677
:10B33C005F4552524F525F424C455F495053505FEC
:10B34C004C494E4B5F444953434F4E4E4543544535
:10B35C0044004E52465F4552524F525F424C455F3D
:10B36C00495053505F504545525F52454A454354EE
:10B37C00454400556E6B6E6F776E206572726F72FE
:10B38C0020636F646500000000000000C5AF020080
:10B39C0001000000D1AF020002000000EFAF02007C
:10B3AC000300000010B002000400000023B00200F3
:10B3BC000500000034B002000600000048B0020096
:10B3CC000700000060B002000800000078B0020026
:10B3DC000900000090B002000A000000A9B00200B1
:10B3EC000B000000C1B002000C000000D8B002003D
:10B3FC000D000000ECB002000E000000FEB00200D8
:10B40C000F0000000DB102001000000021B102007D
:10B41C001100000038B102001200000047B1020018
:10B42C00130000005CB102008000000070B102004B
:10B43C008100000091B1020082000000ADB1020059
:10B44C0083000000C9B1020084000000E7B10200D3
:10B45C008500000008B20200860000002DB2020038
:10B46C009000000044B202009100000062B20200A1
:10B47C009200000080B202000082000095B202002F
:10B48C0001820000B3B2020002820000CFB20200BF
:10B49C0000840000EBB20200018400000FB3020034
:10B4AC000284000039B30200038400005EB3020082
:10B4BC000000010100000001010000001112131432
:10B4CC00636C6F636B00434C4F434B004750494FC9
:10B4DC00544500505253005541525400554152545A
:10B4EC004500436F6E6E65637465640044697363F5
:10B4FC006F6E6E65637465640053656E642062756F
:10B50C0074746F6E207374617465206368616E6708
:10B51C00652E0043616E61727900426C696E6B79C5
:10B52C00206578616D706C652073746172746564EC
:10B53C002E0073645F626C655F6761705F64617439
:10B54C00615F6C656E6774685F75706461746528A3
:10B55C002920287265717565737429206F6E2063BC
:10B56C006F6E6E656374696F6E203078257820720B
:10B57C00657475726E65642025732E0054686520A1
:10B58C007265717565737465642054582F52582018
:10B59C007061636B6574206C656E67746820697389
:10B5AC0020746F6F206C6F6E672062792025752F69
:10B5BC002575206F63746574732E00546865207252
:10B5CC00657175657374656420636F6D62696E6116
:10B5DC0074696F6E206F6620545820616E6420521F
:10B5EC0058207061636B6574206C656E677468734A
:10B5FC0020697320746F6F206C6F6E6720627920E6
:10B60C002575206D6963726F7365636F6E64732E3D
:10B61C000073645F626C655F67617474635F657807
:10B62C006368616E67655F6D74755F726571756572
:10B63C00737428292072657475726E656420257385
:10B64C002E0073645F626C655F67617474735F6511
:10B65C00786368616E67655F6D74755F7265706C39
:10B66C007928292072657475726E65642025732E95
:10B67C00006E72665F626C655F67617474006E72F7
:10B68C00665F7364680001000007000038AD0200BB
:10B69C0038AD02000800000040AD020050AD0200C1
:10B6AC000800000038AD020040AD020008000000A8
:10B6BC0073645F626C655F6366675F73657428298A
:10B6CC002072657475726E656420257320776865C9
:10B6DC006E20617474656D7074696E6720746F2070
:10B6EC0073657420424C455F434F4E4E5F43464753
:10B6FC005F4741502E0073645F626C655F636667E1
:10B70C005F73657428292072657475726E65642088
:10B71C002573207768656E20617474656D7074692B
:10B72C006E6720746F2073657420424C455F4741EF
:10B73C00505F4346475F524F4C455F434F554E5405
:10B74C002E0073645F626C655F6366675F7365741C
:10B75C0028292072657475726E65642025732077B4
:10B76C0068656E20617474656D7074696E672074A1
:10B77C006F2073657420424C455F434F4D4D4F4EC7
:10B78C005F4346475F56535F555549442E007364DB
:10B79C005F626C655F6366675F73657428292072EE
:10B7AC00657475726E6564202573207768656E20EC
:10B7BC00617474656D7074696E6720746F20736545
:10B7CC007420424C455F47415454535F4346475F96
:10B7DC00415454525F5441425F53495A452E0073B1
:10B7EC00645F626C655F6366675F736574282920AC
:10B7FC0072657475726E6564202573207768656E4A
:10B80C0020617474656D7074696E6720746F207339
:10B81C00657420424C455F47415454535F4346473F
:10B82C005F534552564943455F4348414E47454453
:10B83C002E00496E73756666696369656E74205275
:10B84C00414D20616C6C6F636174656420666F722E
:10B85C002074686520536F66744465766963652E41
:10B86C00004368616E6765207468652052414D2005
:10B87C007374617274206C6F636174696F6E20668F
:10B88C00726F6D203078257820746F203078257891
:10B89C002E004D6178696D756D2052414D20736994
:10B8AC007A6520666F72206170706C69636174696F
:10B8BC006F6E20697320307825782E0073645F6278
:10B8CC006C655F656E61626C6528292072657475A4
:10B8DC00726E65642025732E006E72665F736468E9
:10B8EC005F626C650000000008AD020038AD02001C
:10B8FC00080000006E72665F7364685F736F6300AC
:10B90C0000AD020008AD02000800000023D1BCEA23
:10B91C005F782315DEEF12120000000043000000D8
:10B92C00504F534958000000202020202020202078
:10B93C002068282828282020202020202020202093
:10B94C002020202020202020481010101010101033
:10B95C00101010101010101084848484848484843B
:10B96C00848410101010101010818181818181014C
:10B97C0001010101010101010101010101010101AB
:10B98C00010101101010101010828282828282023A
:10B99C00020202020202020202020202020202027B
:10B9AC0002020210101010200007032004170201DD
:10B9BC00085710408000000028B902002CBA020081
:10B9CC0040BB020053756E004D6F6E0054756500E0
:10B9DC0057656400546875004672690053617400C1
:10B9EC00000000004A616E00466562004D61720005
:10B9FC00417072004D6179004A756E004A756C0099
:10BA0C0041756700536570004F6374004E6F76008C
:10BA1C004465630000000000414D00504D000000E3
:10BA2C0064BB020060BB020060BB020060BB020092
:10BA3C0060BB020060BB020060BB020060BB020086
:10BA4C0060BB020060BB0200FFFFFFFFFFFFFFFFB8
:10BA5C00FFFFFFFFFFFF0000A0BA0200D0B90200F9
:10BA6C00DCBA0200F0B9020024BA020084BA020067
:10BA7C0034BB020090BA0200256D2F25642F257966
:10BA8C00000000002561202562202565202554201A
:10BA9C002559000053756E646179004D6F6E6461B9
:10BAAC00790054756573646179005765646E6573CC
:10BABC0064617900546875727364617900467269C7
